{
  "_format": "hh-sol-artifact-1",
  "contractName": "CandidateManager",
  "sourceName": "contracts/CandidateManager.sol",
  "abi": [
    {
      "inputs": [
        {
          "internalType": "address",
          "name": "_electionAddress",
          "type": "address"
        }
      ],
      "stateMutability": "nonpayable",
      "type": "constructor"
    },
    {
      "anonymous": false,
      "inputs": [
        {
          "indexed": true,
          "internalType": "uint256",
          "name": "candidateId",
          "type": "uint256"
        },
        {
          "indexed": false,
          "internalType": "string",
          "name": "name",
          "type": "string"
        }
      ],
      "name": "CandidateAdded",
      "type": "event"
    },
    {
      "inputs": [
        {
          "internalType": "string",
          "name": "_full_name",
          "type": "string"
        },
        {
          "internalType": "string",
          "name": "_date_of_birth",
          "type": "string"
        },
        {
          "internalType": "string",
          "name": "_cid",
          "type": "string"
        },
        {
          "internalType": "string",
          "name": "_party",
          "type": "string"
        },
        {
          "internalType": "uint256",
          "name": "_position_id",
          "type": "uint256"
        }
      ],
      "name": "addCandidate",
      "outputs": [],
      "stateMutability": "nonpayable",
      "type": "function"
    },
    {
      "inputs": [],
      "name": "getAllCandidates",
      "outputs": [
        {
          "components": [
            {
              "internalType": "uint256",
              "name": "id",
              "type": "uint256"
            },
            {
              "internalType": "string",
              "name": "full_names",
              "type": "string"
            },
            {
              "internalType": "string",
              "name": "date_of_birth",
              "type": "string"
            },
            {
              "internalType": "string",
              "name": "cid",
              "type": "string"
            },
            {
              "internalType": "string",
              "name": "party",
              "type": "string"
            },
            {
              "internalType": "uint256",
              "name": "position_id",
              "type": "uint256"
            }
          ],
          "internalType": "struct CandidateManager.Candidate[]",
          "name": "",
          "type": "tuple[]"
        }
      ],
      "stateMutability": "view",
      "type": "function"
    },
    {
      "inputs": [
        {
          "internalType": "uint256",
          "name": "_candidate_id",
          "type": "uint256"
        },
        {
          "internalType": "uint256",
          "name": "_election_id",
          "type": "uint256"
        }
      ],
      "name": "getCandidate",
      "outputs": [
        {
          "internalType": "uint256",
          "name": "",
          "type": "uint256"
        },
        {
          "internalType": "string",
          "name": "",
          "type": "string"
        },
        {
          "internalType": "string",
          "name": "",
          "type": "string"
        },
        {
          "internalType": "string",
          "name": "",
          "type": "string"
        },
        {
          "internalType": "string",
          "name": "",
          "type": "string"
        },
        {
          "internalType": "string",
          "name": "",
          "type": "string"
        },
        {
          "internalType": "string",
          "name": "",
          "type": "string"
        }
      ],
      "stateMutability": "view",
      "type": "function"
    },
    {
      "inputs": [],
      "name": "getCandidateCount",
      "outputs": [
        {
          "internalType": "uint256",
          "name": "",
          "type": "uint256"
        }
      ],
      "stateMutability": "view",
      "type": "function"
    },
    {
      "inputs": [
        {
          "internalType": "uint256",
          "name": "_candidate_id",
          "type": "uint256"
        }
      ],
      "name": "getCandidatePosition",
      "outputs": [
        {
          "internalType": "uint256",
          "name": "",
          "type": "uint256"
        }
      ],
      "stateMutability": "view",
      "type": "function"
    },
    {
      "inputs": [
        {
          "internalType": "uint256",
          "name": "_position_id",
          "type": "uint256"
        }
      ],
      "name": "getCandidatesCountByPosition",
      "outputs": [
        {
          "internalType": "uint256",
          "name": "",
          "type": "uint256"
        }
      ],
      "stateMutability": "view",
      "type": "function"
    },
    {
      "inputs": [
        {
          "internalType": "uint256",
          "name": "_position__id",
          "type": "uint256"
        }
      ],
      "name": "getCandidatesForPosition",
      "outputs": [
        {
          "components": [
            {
              "internalType": "uint256",
              "name": "id",
              "type": "uint256"
            },
            {
              "internalType": "string",
              "name": "full_names",
              "type": "string"
            },
            {
              "internalType": "string",
              "name": "date_of_birth",
              "type": "string"
            },
            {
              "internalType": "string",
              "name": "cid",
              "type": "string"
            },
            {
              "internalType": "string",
              "name": "party",
              "type": "string"
            },
            {
              "internalType": "uint256",
              "name": "position_id",
              "type": "uint256"
            }
          ],
          "internalType": "struct CandidateManager.Candidate[]",
          "name": "",
          "type": "tuple[]"
        }
      ],
      "stateMutability": "view",
      "type": "function"
    }
  ],
  "bytecode": "0x608060405234801561001057600080fd5b50604051611fe3380380611fe38339818101604052810190610032919061011d565b33600260006101000a81548173ffffffffffffffffffffffffffffffffffffffff021916908373ffffffffffffffffffffffffffffffffffffffff16021790555080600360006101000a81548173ffffffffffffffffffffffffffffffffffffffff021916908373ffffffffffffffffffffffffffffffffffffffff1602179055505061014a565b600080fd5b600073ffffffffffffffffffffffffffffffffffffffff82169050919050565b60006100ea826100bf565b9050919050565b6100fa816100df565b811461010557600080fd5b50565b600081519050610117816100f1565b92915050565b600060208284031215610133576101326100ba565b5b600061014184828501610108565b91505092915050565b611e8a806101596000396000f3fe608060405234801561001057600080fd5b506004361061007d5760003560e01c806383e917cc1161005b57806383e917cc146100f4578063d8164e6514610110578063d8bb8d9314610140578063e7bf42cb146101705761007d565b80632e6997fe1461008257806330a56347146100a05780634bd46448146100be575b600080fd5b61008a6101a0565b60405161009791906114b3565b60405180910390f35b6100a86104c1565b6040516100b591906114e4565b60405180910390f35b6100d860048036038101906100d3919061153f565b6104cb565b6040516100eb97969594939291906115c9565b60405180910390f35b61010e60048036038101906101099190611797565b61083a565b005b61012a60048036038101906101259190611882565b6109d5565b60405161013791906114e4565b60405180910390f35b61015a60048036038101906101559190611882565b610ca4565b60405161016791906114e4565b60405180910390f35b61018a60048036038101906101859190611882565b610f2f565b60405161019791906114b3565b60405180910390f35b6060600060015467ffffffffffffffff8111156101c0576101bf61166c565b5b6040519080825280602002602001820160405280156101f957816020015b6101e6611274565b8152602001906001900390816101de5790505b50905060005b6001548110156104b95760008060018361021991906118de565b81526020019081526020016000206040518060c00160405290816000820154815260200160018201805461024c90611941565b80601f016020809104026020016040519081016040528092919081815260200182805461027890611941565b80156102c55780601f1061029a576101008083540402835291602001916102c5565b820191906000526020600020905b8154815290600101906020018083116102a857829003601f168201915b505050505081526020016002820180546102de90611941565b80601f016020809104026020016040519081016040528092919081815260200182805461030a90611941565b80156103575780601f1061032c57610100808354040283529160200191610357565b820191906000526020600020905b81548152906001019060200180831161033a57829003601f168201915b5050505050815260200160038201805461037090611941565b80601f016020809104026020016040519081016040528092919081815260200182805461039c90611941565b80156103e95780601f106103be576101008083540402835291602001916103e9565b820191906000526020600020905b8154815290600101906020018083116103cc57829003601f168201915b5050505050815260200160048201805461040290611941565b80601f016020809104026020016040519081016040528092919081815260200182805461042e90611941565b801561047b5780601f106104505761010080835404028352916020019161047b565b820191906000526020600020905b81548152906001019060200180831161045e57829003601f168201915b505050505081526020016005820154815250508282815181106104a1576104a0611972565b5b602002602001018190525080806001019150506101ff565b508091505090565b6000600154905090565b600060608060608060608060008060008b81526020019081526020016000206040518060c00160405290816000820154815260200160018201805461050f90611941565b80601f016020809104026020016040519081016040528092919081815260200182805461053b90611941565b80156105885780601f1061055d57610100808354040283529160200191610588565b820191906000526020600020905b81548152906001019060200180831161056b57829003601f168201915b505050505081526020016002820180546105a190611941565b80601f01602080910402602001604051908101604052809291908181526020018280546105cd90611941565b801561061a5780601f106105ef5761010080835404028352916020019161061a565b820191906000526020600020905b8154815290600101906020018083116105fd57829003601f168201915b5050505050815260200160038201805461063390611941565b80601f016020809104026020016040519081016040528092919081815260200182805461065f90611941565b80156106ac5780601f10610681576101008083540402835291602001916106ac565b820191906000526020600020905b81548152906001019060200180831161068f57829003601f168201915b505050505081526020016004820180546106c590611941565b80601f01602080910402602001604051908101604052809291908181526020018280546106f190611941565b801561073e5780601f106107135761010080835404028352916020019161073e565b820191906000526020600020905b81548152906001019060200180831161072157829003601f168201915b505050505081526020016005820154815250509050600080600360009054906101000a900473ffffffffffffffffffffffffffffffffffffffff1673ffffffffffffffffffffffffffffffffffffffff1663751de4218460a001518d6040518363ffffffff1660e01b81526004016107b79291906119a1565b600060405180830381865afa1580156107d4573d6000803e3d6000fd5b505050506040513d6000823e3d601f19601f820116820180604052508101906107fd9190611a4f565b9250925050826000015183602001518460800151856060015186604001518686995099509950995099509950995050505092959891949750929550565b600260009054906101000a900473ffffffffffffffffffffffffffffffffffffffff1673ffffffffffffffffffffffffffffffffffffffff163373ffffffffffffffffffffffffffffffffffffffff16146108ca576040517f08c379a00000000000000000000000000000000000000000000000000000000081526004016108c190611b4c565b60405180910390fd5b600160008154809291906108dd90611b6c565b91905055506040518060c0016040528060015481526020018681526020018581526020018481526020018381526020018281525060008060015481526020019081526020016000206000820151816000015560208201518160010190816109449190611d60565b50604082015181600201908161095a9190611d60565b5060608201518160030190816109709190611d60565b5060808201518160040190816109869190611d60565b5060a082015181600501559050506001547fe83b2a43e7e82d975c8a0a6d2f045153c869e111136a34d1889ab7b598e396a3866040516109c69190611e32565b60405180910390a25050505050565b6000806000905060005b600154811015610c9a5760008060006001846109fb91906118de565b81526020019081526020016000206040518060c001604052908160008201548152602001600182018054610a2e90611941565b80601f0160208091040260200160405190810160405280929190818152602001828054610a5a90611941565b8015610aa75780601f10610a7c57610100808354040283529160200191610aa7565b820191906000526020600020905b815481529060010190602001808311610a8a57829003601f168201915b50505050508152602001600282018054610ac090611941565b80601f0160208091040260200160405190810160405280929190818152602001828054610aec90611941565b8015610b395780601f10610b0e57610100808354040283529160200191610b39565b820191906000526020600020905b815481529060010190602001808311610b1c57829003601f168201915b50505050508152602001600382018054610b5290611941565b80601f0160208091040260200160405190810160405280929190818152602001828054610b7e90611941565b8015610bcb5780601f10610ba057610100808354040283529160200191610bcb565b820191906000526020600020905b815481529060010190602001808311610bae57829003601f168201915b50505050508152602001600482018054610be490611941565b80601f0160208091040260200160405190810160405280929190818152602001828054610c1090611941565b8015610c5d5780601f10610c3257610100808354040283529160200191610c5d565b820191906000526020600020905b815481529060010190602001808311610c4057829003601f168201915b505050505081526020016005820154815250509050848160a0015103610c8c578280610c8890611b6c565b9350505b5080806001019150506109df565b5080915050919050565b6000806000808481526020019081526020016000206040518060c001604052908160008201548152602001600182018054610cde90611941565b80601f0160208091040260200160405190810160405280929190818152602001828054610d0a90611941565b8015610d575780601f10610d2c57610100808354040283529160200191610d57565b820191906000526020600020905b815481529060010190602001808311610d3a57829003601f168201915b50505050508152602001600282018054610d7090611941565b80601f0160208091040260200160405190810160405280929190818152602001828054610d9c90611941565b8015610de95780601f10610dbe57610100808354040283529160200191610de9565b820191906000526020600020905b815481529060010190602001808311610dcc57829003601f168201915b50505050508152602001600382018054610e0290611941565b80601f0160208091040260200160405190810160405280929190818152602001828054610e2e90611941565b8015610e7b5780601f10610e5057610100808354040283529160200191610e7b565b820191906000526020600020905b815481529060010190602001808311610e5e57829003601f168201915b50505050508152602001600482018054610e9490611941565b80601f0160208091040260200160405190810160405280929190818152602001828054610ec090611941565b8015610f0d5780601f10610ee257610100808354040283529160200191610f0d565b820191906000526020600020905b815481529060010190602001808311610ef057829003601f168201915b5050505050815260200160058201548152505090508060a00151915050919050565b6060600060015467ffffffffffffffff811115610f4f57610f4e61166c565b5b604051908082528060200260200182016040528015610f8857816020015b610f75611274565b815260200190600190039081610f6d5790505b5090506000805b600154811015611269576000806000600184610fab91906118de565b81526020019081526020016000206040518060c001604052908160008201548152602001600182018054610fde90611941565b80601f016020809104026020016040519081016040528092919081815260200182805461100a90611941565b80156110575780601f1061102c57610100808354040283529160200191611057565b820191906000526020600020905b81548152906001019060200180831161103a57829003601f168201915b5050505050815260200160028201805461107090611941565b80601f016020809104026020016040519081016040528092919081815260200182805461109c90611941565b80156110e95780601f106110be576101008083540402835291602001916110e9565b820191906000526020600020905b8154815290600101906020018083116110cc57829003601f168201915b5050505050815260200160038201805461110290611941565b80601f016020809104026020016040519081016040528092919081815260200182805461112e90611941565b801561117b5780601f106111505761010080835404028352916020019161117b565b820191906000526020600020905b81548152906001019060200180831161115e57829003601f168201915b5050505050815260200160048201805461119490611941565b80601f01602080910402602001604051908101604052809291908181526020018280546111c090611941565b801561120d5780601f106111e25761010080835404028352916020019161120d565b820191906000526020600020905b8154815290600101906020018083116111f057829003601f168201915b505050505081526020016005820154815250509050858160a001510361125b578084848151811061124157611240611972565b5b6020026020010181905250828061125790611b6c565b9350505b508080600101915050610f8f565b508192505050919050565b6040518060c001604052806000815260200160608152602001606081526020016060815260200160608152602001600081525090565b600081519050919050565b600082825260208201905092915050565b6000819050602082019050919050565b6000819050919050565b6112e9816112d6565b82525050565b600081519050919050565b600082825260208201905092915050565b60005b8381101561132957808201518184015260208101905061130e565b60008484015250505050565b6000601f19601f8301169050919050565b6000611351826112ef565b61135b81856112fa565b935061136b81856020860161130b565b61137481611335565b840191505092915050565b600060c08301600083015161139760008601826112e0565b50602083015184820360208601526113af8282611346565b915050604083015184820360408601526113c98282611346565b915050606083015184820360608601526113e38282611346565b915050608083015184820360808601526113fd8282611346565b91505060a083015161141260a08601826112e0565b508091505092915050565b6000611429838361137f565b905092915050565b6000602082019050919050565b6000611449826112aa565b61145381856112b5565b935083602082028501611465856112c6565b8060005b858110156114a15784840389528151611482858261141d565b945061148d83611431565b925060208a01995050600181019050611469565b50829750879550505050505092915050565b600060208201905081810360008301526114cd818461143e565b905092915050565b6114de816112d6565b82525050565b60006020820190506114f960008301846114d5565b92915050565b6000604051905090565b600080fd5b600080fd5b61151c816112d6565b811461152757600080fd5b50565b60008135905061153981611513565b92915050565b6000806040838503121561155657611555611509565b5b60006115648582860161152a565b92505060206115758582860161152a565b9150509250929050565b600082825260208201905092915050565b600061159b826112ef565b6115a5818561157f565b93506115b581856020860161130b565b6115be81611335565b840191505092915050565b600060e0820190506115de600083018a6114d5565b81810360208301526115f08189611590565b905081810360408301526116048188611590565b905081810360608301526116188187611590565b9050818103608083015261162c8186611590565b905081810360a08301526116408185611590565b905081810360c08301526116548184611590565b905098975050505050505050565b600080fd5b600080fd5b7f4e487b7100000000000000000000000000000000000000000000000000000000600052604160045260246000fd5b6116a482611335565b810181811067ffffffffffffffff821117156116c3576116c261166c565b5b80604052505050565b60006116d66114ff565b90506116e2828261169b565b919050565b600067ffffffffffffffff8211156117025761170161166c565b5b61170b82611335565b9050602081019050919050565b82818337600083830152505050565b600061173a611735846116e7565b6116cc565b90508281526020810184848401111561175657611755611667565b5b611761848285611718565b509392505050565b600082601f83011261177e5761177d611662565b5b813561178e848260208601611727565b91505092915050565b600080600080600060a086880312156117b3576117b2611509565b5b600086013567ffffffffffffffff8111156117d1576117d061150e565b5b6117dd88828901611769565b955050602086013567ffffffffffffffff8111156117fe576117fd61150e565b5b61180a88828901611769565b945050604086013567ffffffffffffffff81111561182b5761182a61150e565b5b61183788828901611769565b935050606086013567ffffffffffffffff8111156118585761185761150e565b5b61186488828901611769565b92505060806118758882890161152a565b9150509295509295909350565b60006020828403121561189857611897611509565b5b60006118a68482850161152a565b91505092915050565b7f4e487b7100000000000000000000000000000000000000000000000000000000600052601160045260246000fd5b60006118e9826112d6565b91506118f4836112d6565b925082820190508082111561190c5761190b6118af565b5b92915050565b7f4e487b7100000000000000000000000000000000000000000000000000000000600052602260045260246000fd5b6000600282049050600182168061195957607f821691505b60208210810361196c5761196b611912565b5b50919050565b7f4e487b7100000000000000000000000000000000000000000000000000000000600052603260045260246000fd5b60006040820190506119b660008301856114d5565b6119c360208301846114d5565b9392505050565b6000815190506119d981611513565b92915050565b60006119f26119ed846116e7565b6116cc565b905082815260208101848484011115611a0e57611a0d611667565b5b611a1984828561130b565b509392505050565b600082601f830112611a3657611a35611662565b5b8151611a468482602086016119df565b91505092915050565b600080600060608486031215611a6857611a67611509565b5b6000611a76868287016119ca565b935050602084015167ffffffffffffffff811115611a9757611a9661150e565b5b611aa386828701611a21565b925050604084015167ffffffffffffffff811115611ac457611ac361150e565b5b611ad086828701611a21565b9150509250925092565b7f4f6e6c792061646d696e2063616e20706572666f726d2074686973206163746960008201527f6f6e000000000000000000000000000000000000000000000000000000000000602082015250565b6000611b3660228361157f565b9150611b4182611ada565b604082019050919050565b60006020820190508181036000830152611b6581611b29565b9050919050565b6000611b77826112d6565b91507fffffffffffffffffffffffffffffffffffffffffffffffffffffffffffffffff8203611ba957611ba86118af565b5b600182019050919050565b60008190508160005260206000209050919050565b60006020601f8301049050919050565b600082821b905092915050565b600060088302611c167fffffffffffffffffffffffffffffffffffffffffffffffffffffffffffffffff82611bd9565b611c208683611bd9565b95508019841693508086168417925050509392505050565b6000819050919050565b6000611c5d611c58611c53846112d6565b611c38565b6112d6565b9050919050565b6000819050919050565b611c7783611c42565b611c8b611c8382611c64565b848454611be6565b825550505050565b600090565b611ca0611c93565b611cab818484611c6e565b505050565b5b81811015611ccf57611cc4600082611c98565b600181019050611cb1565b5050565b601f821115611d1457611ce581611bb4565b611cee84611bc9565b81016020851015611cfd578190505b611d11611d0985611bc9565b830182611cb0565b50505b505050565b600082821c905092915050565b6000611d3760001984600802611d19565b1980831691505092915050565b6000611d508383611d26565b9150826002028217905092915050565b611d69826112ef565b67ffffffffffffffff811115611d8257611d8161166c565b5b611d8c8254611941565b611d97828285611cd3565b600060209050601f831160018114611dca5760008415611db8578287015190505b611dc28582611d44565b865550611e2a565b601f198416611dd886611bb4565b60005b82811015611e0057848901518255600182019150602085019450602081019050611ddb565b86831015611e1d5784890151611e19601f891682611d26565b8355505b6001600288020188555050505b505050505050565b60006020820190508181036000830152611e4c8184611590565b90509291505056fea26469706673582212208a3f4dcfab98f4010e1e965e5a6ec6a34dd74addf2a95b93c2acb0e190ac6aed64736f6c634300081c0033",
  "linkReferences": {},
  "deployedLinkReferences": {}
}