{
  "_format": "hh-sol-artifact-1",
  "contractName": "CandidateManager",
  "sourceName": "contracts/CandidateManager.sol",
  "abi": [
    {
      "inputs": [
        {
          "internalType": "address",
          "name": "_electionAddress",
          "type": "address"
        }
      ],
      "stateMutability": "nonpayable",
      "type": "constructor"
    },
    {
      "anonymous": false,
      "inputs": [
        {
          "indexed": true,
          "internalType": "uint256",
          "name": "candidateId",
          "type": "uint256"
        },
        {
          "indexed": false,
          "internalType": "string",
          "name": "name",
          "type": "string"
        }
      ],
      "name": "CandidateAdded",
      "type": "event"
    },
    {
      "inputs": [
        {
          "internalType": "string",
          "name": "_full_name",
          "type": "string"
        },
        {
          "internalType": "string",
          "name": "_date_of_birth",
          "type": "string"
        },
        {
          "internalType": "string",
          "name": "_cid",
          "type": "string"
        },
        {
          "internalType": "string",
          "name": "_party",
          "type": "string"
        },
        {
          "internalType": "uint256",
          "name": "_position_id",
          "type": "uint256"
        },
        {
          "internalType": "uint256",
          "name": "_election_id",
          "type": "uint256"
        }
      ],
      "name": "addCandidate",
      "outputs": [],
      "stateMutability": "nonpayable",
      "type": "function"
    },
    {
      "inputs": [
        {
          "internalType": "uint256",
          "name": "_election_id",
          "type": "uint256"
        }
      ],
      "name": "getAllCandidates",
      "outputs": [
        {
          "components": [
            {
              "internalType": "uint256",
              "name": "id",
              "type": "uint256"
            },
            {
              "internalType": "string",
              "name": "full_names",
              "type": "string"
            },
            {
              "internalType": "string",
              "name": "date_of_birth",
              "type": "string"
            },
            {
              "internalType": "string",
              "name": "cid",
              "type": "string"
            },
            {
              "internalType": "string",
              "name": "party",
              "type": "string"
            },
            {
              "internalType": "uint256",
              "name": "position_id",
              "type": "uint256"
            },
            {
              "internalType": "uint256",
              "name": "election_id",
              "type": "uint256"
            }
          ],
          "internalType": "struct Candidate[]",
          "name": "",
          "type": "tuple[]"
        }
      ],
      "stateMutability": "view",
      "type": "function"
    },
    {
      "inputs": [
        {
          "internalType": "uint256",
          "name": "_candidate_id",
          "type": "uint256"
        },
        {
          "internalType": "uint256",
          "name": "_election_id",
          "type": "uint256"
        }
      ],
      "name": "getCandidate",
      "outputs": [
        {
          "internalType": "uint256",
          "name": "",
          "type": "uint256"
        },
        {
          "internalType": "string",
          "name": "",
          "type": "string"
        },
        {
          "internalType": "string",
          "name": "",
          "type": "string"
        },
        {
          "internalType": "string",
          "name": "",
          "type": "string"
        },
        {
          "internalType": "string",
          "name": "",
          "type": "string"
        },
        {
          "internalType": "string",
          "name": "",
          "type": "string"
        },
        {
          "internalType": "string",
          "name": "",
          "type": "string"
        }
      ],
      "stateMutability": "view",
      "type": "function"
    },
    {
      "inputs": [],
      "name": "getCandidateCount",
      "outputs": [
        {
          "internalType": "uint256",
          "name": "",
          "type": "uint256"
        }
      ],
      "stateMutability": "view",
      "type": "function"
    },
    {
      "inputs": [
        {
          "internalType": "uint256",
          "name": "_candidate_id",
          "type": "uint256"
        }
      ],
      "name": "getCandidatePosition",
      "outputs": [
        {
          "internalType": "uint256",
          "name": "",
          "type": "uint256"
        }
      ],
      "stateMutability": "view",
      "type": "function"
    },
    {
      "inputs": [
        {
          "internalType": "uint256",
          "name": "_position_id",
          "type": "uint256"
        },
        {
          "internalType": "uint256",
          "name": "_election_id",
          "type": "uint256"
        }
      ],
      "name": "getCandidatesCountByPosition",
      "outputs": [
        {
          "internalType": "uint256",
          "name": "",
          "type": "uint256"
        }
      ],
      "stateMutability": "view",
      "type": "function"
    },
    {
      "inputs": [
        {
          "internalType": "uint256",
          "name": "_position__id",
          "type": "uint256"
        },
        {
          "internalType": "uint256",
          "name": "_election_id",
          "type": "uint256"
        }
      ],
      "name": "getCandidatesForPosition",
      "outputs": [
        {
          "components": [
            {
              "internalType": "uint256",
              "name": "id",
              "type": "uint256"
            },
            {
              "internalType": "string",
              "name": "full_names",
              "type": "string"
            },
            {
              "internalType": "string",
              "name": "date_of_birth",
              "type": "string"
            },
            {
              "internalType": "string",
              "name": "cid",
              "type": "string"
            },
            {
              "internalType": "string",
              "name": "party",
              "type": "string"
            },
            {
              "internalType": "uint256",
              "name": "position_id",
              "type": "uint256"
            },
            {
              "internalType": "uint256",
              "name": "election_id",
              "type": "uint256"
            }
          ],
          "internalType": "struct Candidate[]",
          "name": "",
          "type": "tuple[]"
        }
      ],
      "stateMutability": "view",
      "type": "function"
    }
  ],
  "bytecode": "0x608060405234801561001057600080fd5b5060405161212b38038061212b8339818101604052810190610032919061011d565b33600260006101000a81548173ffffffffffffffffffffffffffffffffffffffff021916908373ffffffffffffffffffffffffffffffffffffffff16021790555080600360006101000a81548173ffffffffffffffffffffffffffffffffffffffff021916908373ffffffffffffffffffffffffffffffffffffffff1602179055505061014a565b600080fd5b600073ffffffffffffffffffffffffffffffffffffffff82169050919050565b60006100ea826100bf565b9050919050565b6100fa816100df565b811461010557600080fd5b50565b600081519050610117816100f1565b92915050565b600060208284031215610133576101326100ba565b5b600061014184828501610108565b91505092915050565b611fd2806101596000396000f3fe608060405234801561001057600080fd5b506004361061007d5760003560e01c806354a4ea651161005b57806354a4ea65146100f257806354e55b7514610122578063d8bb8d9314610152578063f9ded646146101825761007d565b806302ad4c481461008257806330a563471461009e5780634bd46448146100bc575b600080fd5b61009c6004803603810190610097919061155d565b6101b2565b005b6100a661035e565b6040516100b39190611669565b60405180910390f35b6100d660048036038101906100d19190611684565b610368565b6040516100e99796959493929190611743565b60405180910390f35b61010c60048036038101906101079190611684565b610763565b60405161011991906119a8565b60405180910390f35b61013c60048036038101906101379190611684565b610ac3565b6040516101499190611669565b60405180910390f35b61016c600480360381019061016791906119ca565b610dad565b6040516101799190611669565b60405180910390f35b61019c600480360381019061019791906119ca565b611042565b6040516101a991906119a8565b60405180910390f35b600260009054906101000a900473ffffffffffffffffffffffffffffffffffffffff1673ffffffffffffffffffffffffffffffffffffffff163373ffffffffffffffffffffffffffffffffffffffff1614610242576040517f08c379a000000000000000000000000000000000000000000000000000000000815260040161023990611a69565b60405180910390fd5b6001600081548092919061025590611ab8565b91905055506040518060e0016040528060015481526020018781526020018681526020018581526020018481526020018381526020018281525060008060015481526020019081526020016000206000820151816000015560208201518160010190816102c29190611d0c565b5060408201518160020190816102d89190611d0c565b5060608201518160030190816102ee9190611d0c565b5060808201518160040190816103049190611d0c565b5060a0820151816005015560c082015181600601559050506001547fe83b2a43e7e82d975c8a0a6d2f045153c869e111136a34d1889ab7b598e396a38760405161034e9190611dde565b60405180910390a2505050505050565b6000600154905090565b600060608060608060608060008060008b81526020019081526020016000206040518060e0016040529081600082015481526020016001820180546103ac90611b2f565b80601f01602080910402602001604051908101604052809291908181526020018280546103d890611b2f565b80156104255780601f106103fa57610100808354040283529160200191610425565b820191906000526020600020905b81548152906001019060200180831161040857829003601f168201915b5050505050815260200160028201805461043e90611b2f565b80601f016020809104026020016040519081016040528092919081815260200182805461046a90611b2f565b80156104b75780601f1061048c576101008083540402835291602001916104b7565b820191906000526020600020905b81548152906001019060200180831161049a57829003601f168201915b505050505081526020016003820180546104d090611b2f565b80601f01602080910402602001604051908101604052809291908181526020018280546104fc90611b2f565b80156105495780601f1061051e57610100808354040283529160200191610549565b820191906000526020600020905b81548152906001019060200180831161052c57829003601f168201915b5050505050815260200160048201805461056290611b2f565b80601f016020809104026020016040519081016040528092919081815260200182805461058e90611b2f565b80156105db5780601f106105b0576101008083540402835291602001916105db565b820191906000526020600020905b8154815290600101906020018083116105be57829003601f168201915b50505050508152602001600582015481526020016006820154815250509050888160c001511461067b576000604051806020016040528060008152506040518060200160405280600081525060405180602001604052806000815250604051806020016040528060008152506040518060200160405280600081525060405180602001604052806000815250975097509750975097509750975050610757565b600080600360009054906101000a900473ffffffffffffffffffffffffffffffffffffffff1673ffffffffffffffffffffffffffffffffffffffff1663751de4218460a001518d6040518363ffffffff1660e01b81526004016106df929190611e00565b600060405180830381865afa1580156106fc573d6000803e3d6000fd5b505050506040513d6000823e3d601f19601f820116820180604052508101906107259190611eae565b925092505082600001518360200151846080015185606001518660400151868699509950995099509950995099505050505b92959891949750929550565b6060600060015467ffffffffffffffff811115610783576107826113fc565b5b6040519080825280602002602001820160405280156107bc57816020015b6107a9611390565b8152602001906001900390816107a15790505b5090506000805b600154811015610ab75760008060006001846107df9190611f39565b81526020019081526020016000206040518060e00160405290816000820154815260200160018201805461081290611b2f565b80601f016020809104026020016040519081016040528092919081815260200182805461083e90611b2f565b801561088b5780601f106108605761010080835404028352916020019161088b565b820191906000526020600020905b81548152906001019060200180831161086e57829003601f168201915b505050505081526020016002820180546108a490611b2f565b80601f01602080910402602001604051908101604052809291908181526020018280546108d090611b2f565b801561091d5780601f106108f25761010080835404028352916020019161091d565b820191906000526020600020905b81548152906001019060200180831161090057829003601f168201915b5050505050815260200160038201805461093690611b2f565b80601f016020809104026020016040519081016040528092919081815260200182805461096290611b2f565b80156109af5780601f10610984576101008083540402835291602001916109af565b820191906000526020600020905b81548152906001019060200180831161099257829003601f168201915b505050505081526020016004820180546109c890611b2f565b80601f01602080910402602001604051908101604052809291908181526020018280546109f490611b2f565b8015610a415780601f10610a1657610100808354040283529160200191610a41565b820191906000526020600020905b815481529060010190602001808311610a2457829003601f168201915b50505050508152602001600582015481526020016006820154815250509050868160a00151148015610a765750858160c00151145b15610aa95780848481518110610a8f57610a8e611f6d565b5b60200260200101819052508280610aa590611ab8565b9350505b5080806001019150506107c3565b50819250505092915050565b6000806000905060005b600154811015610da2576000806000600184610ae99190611f39565b81526020019081526020016000206040518060e001604052908160008201548152602001600182018054610b1c90611b2f565b80601f0160208091040260200160405190810160405280929190818152602001828054610b4890611b2f565b8015610b955780601f10610b6a57610100808354040283529160200191610b95565b820191906000526020600020905b815481529060010190602001808311610b7857829003601f168201915b50505050508152602001600282018054610bae90611b2f565b80601f0160208091040260200160405190810160405280929190818152602001828054610bda90611b2f565b8015610c275780601f10610bfc57610100808354040283529160200191610c27565b820191906000526020600020905b815481529060010190602001808311610c0a57829003601f168201915b50505050508152602001600382018054610c4090611b2f565b80601f0160208091040260200160405190810160405280929190818152602001828054610c6c90611b2f565b8015610cb95780601f10610c8e57610100808354040283529160200191610cb9565b820191906000526020600020905b815481529060010190602001808311610c9c57829003601f168201915b50505050508152602001600482018054610cd290611b2f565b80601f0160208091040260200160405190810160405280929190818152602001828054610cfe90611b2f565b8015610d4b5780601f10610d2057610100808354040283529160200191610d4b565b820191906000526020600020905b815481529060010190602001808311610d2e57829003601f168201915b50505050508152602001600582015481526020016006820154815250509050858160a00151148015610d805750848160c00151145b15610d94578280610d9090611ab8565b9350505b508080600101915050610acd565b508091505092915050565b6000806000808481526020019081526020016000206040518060e001604052908160008201548152602001600182018054610de790611b2f565b80601f0160208091040260200160405190810160405280929190818152602001828054610e1390611b2f565b8015610e605780601f10610e3557610100808354040283529160200191610e60565b820191906000526020600020905b815481529060010190602001808311610e4357829003601f168201915b50505050508152602001600282018054610e7990611b2f565b80601f0160208091040260200160405190810160405280929190818152602001828054610ea590611b2f565b8015610ef25780601f10610ec757610100808354040283529160200191610ef2565b820191906000526020600020905b815481529060010190602001808311610ed557829003601f168201915b50505050508152602001600382018054610f0b90611b2f565b80601f0160208091040260200160405190810160405280929190818152602001828054610f3790611b2f565b8015610f845780601f10610f5957610100808354040283529160200191610f84565b820191906000526020600020905b815481529060010190602001808311610f6757829003601f168201915b50505050508152602001600482018054610f9d90611b2f565b80601f0160208091040260200160405190810160405280929190818152602001828054610fc990611b2f565b80156110165780601f10610feb57610100808354040283529160200191611016565b820191906000526020600020905b815481529060010190602001808311610ff957829003601f168201915b505050505081526020016005820154815260200160068201548152505090508060a00151915050919050565b606060008060015467ffffffffffffffff811115611063576110626113fc565b5b60405190808252806020026020018201604052801561109c57816020015b611089611390565b8152602001906001900390816110815790505b50905060005b60015481101561138557846000808381526020019081526020016000206006015403611378576000808281526020019081526020016000206040518060e0016040529081600082015481526020016001820180546110ff90611b2f565b80601f016020809104026020016040519081016040528092919081815260200182805461112b90611b2f565b80156111785780601f1061114d57610100808354040283529160200191611178565b820191906000526020600020905b81548152906001019060200180831161115b57829003601f168201915b5050505050815260200160028201805461119190611b2f565b80601f01602080910402602001604051908101604052809291908181526020018280546111bd90611b2f565b801561120a5780601f106111df5761010080835404028352916020019161120a565b820191906000526020600020905b8154815290600101906020018083116111ed57829003601f168201915b5050505050815260200160038201805461122390611b2f565b80601f016020809104026020016040519081016040528092919081815260200182805461124f90611b2f565b801561129c5780601f106112715761010080835404028352916020019161129c565b820191906000526020600020905b81548152906001019060200180831161127f57829003601f168201915b505050505081526020016004820180546112b590611b2f565b80601f01602080910402602001604051908101604052809291908181526020018280546112e190611b2f565b801561132e5780601f106113035761010080835404028352916020019161132e565b820191906000526020600020905b81548152906001019060200180831161131157829003601f168201915b505050505081526020016005820154815260200160068201548152505082848151811061135e5761135d611f6d565b5b6020026020010181905250828061137490611ab8565b9350505b80806001019150506110a2565b508092505050919050565b6040518060e00160405280600081526020016060815260200160608152602001606081526020016060815260200160008152602001600081525090565b6000604051905090565b600080fd5b600080fd5b600080fd5b600080fd5b6000601f19601f8301169050919050565b7f4e487b7100000000000000000000000000000000000000000000000000000000600052604160045260246000fd5b611434826113eb565b810181811067ffffffffffffffff82111715611453576114526113fc565b5b80604052505050565b60006114666113cd565b9050611472828261142b565b919050565b600067ffffffffffffffff821115611492576114916113fc565b5b61149b826113eb565b9050602081019050919050565b82818337600083830152505050565b60006114ca6114c584611477565b61145c565b9050828152602081018484840111156114e6576114e56113e6565b5b6114f18482856114a8565b509392505050565b600082601f83011261150e5761150d6113e1565b5b813561151e8482602086016114b7565b91505092915050565b6000819050919050565b61153a81611527565b811461154557600080fd5b50565b60008135905061155781611531565b92915050565b60008060008060008060c0878903121561157a576115796113d7565b5b600087013567ffffffffffffffff811115611598576115976113dc565b5b6115a489828a016114f9565b965050602087013567ffffffffffffffff8111156115c5576115c46113dc565b5b6115d189828a016114f9565b955050604087013567ffffffffffffffff8111156115f2576115f16113dc565b5b6115fe89828a016114f9565b945050606087013567ffffffffffffffff81111561161f5761161e6113dc565b5b61162b89828a016114f9565b935050608061163c89828a01611548565b92505060a061164d89828a01611548565b9150509295509295509295565b61166381611527565b82525050565b600060208201905061167e600083018461165a565b92915050565b6000806040838503121561169b5761169a6113d7565b5b60006116a985828601611548565b92505060206116ba85828601611548565b9150509250929050565b600081519050919050565b600082825260208201905092915050565b60005b838110156116fe5780820151818401526020810190506116e3565b60008484015250505050565b6000611715826116c4565b61171f81856116cf565b935061172f8185602086016116e0565b611738816113eb565b840191505092915050565b600060e082019050611758600083018a61165a565b818103602083015261176a818961170a565b9050818103604083015261177e818861170a565b90508181036060830152611792818761170a565b905081810360808301526117a6818661170a565b905081810360a08301526117ba818561170a565b905081810360c08301526117ce818461170a565b905098975050505050505050565b600081519050919050565b600082825260208201905092915050565b6000819050602082019050919050565b61181181611527565b82525050565b600082825260208201905092915050565b6000611833826116c4565b61183d8185611817565b935061184d8185602086016116e0565b611856816113eb565b840191505092915050565b600060e0830160008301516118796000860182611808565b50602083015184820360208601526118918282611828565b915050604083015184820360408601526118ab8282611828565b915050606083015184820360608601526118c58282611828565b915050608083015184820360808601526118df8282611828565b91505060a08301516118f460a0860182611808565b5060c083015161190760c0860182611808565b508091505092915050565b600061191e8383611861565b905092915050565b6000602082019050919050565b600061193e826117dc565b61194881856117e7565b93508360208202850161195a856117f8565b8060005b8581101561199657848403895281516119778582611912565b945061198283611926565b925060208a0199505060018101905061195e565b50829750879550505050505092915050565b600060208201905081810360008301526119c28184611933565b905092915050565b6000602082840312156119e0576119df6113d7565b5b60006119ee84828501611548565b91505092915050565b7f4f6e6c792061646d696e2063616e20706572666f726d2074686973206163746960008201527f6f6e000000000000000000000000000000000000000000000000000000000000602082015250565b6000611a536022836116cf565b9150611a5e826119f7565b604082019050919050565b60006020820190508181036000830152611a8281611a46565b9050919050565b7f4e487b7100000000000000000000000000000000000000000000000000000000600052601160045260246000fd5b6000611ac382611527565b91507fffffffffffffffffffffffffffffffffffffffffffffffffffffffffffffffff8203611af557611af4611a89565b5b600182019050919050565b7f4e487b7100000000000000000000000000000000000000000000000000000000600052602260045260246000fd5b60006002820490506001821680611b4757607f821691505b602082108103611b5a57611b59611b00565b5b50919050565b60008190508160005260206000209050919050565b60006020601f8301049050919050565b600082821b905092915050565b600060088302611bc27fffffffffffffffffffffffffffffffffffffffffffffffffffffffffffffffff82611b85565b611bcc8683611b85565b95508019841693508086168417925050509392505050565b6000819050919050565b6000611c09611c04611bff84611527565b611be4565b611527565b9050919050565b6000819050919050565b611c2383611bee565b611c37611c2f82611c10565b848454611b92565b825550505050565b600090565b611c4c611c3f565b611c57818484611c1a565b505050565b5b81811015611c7b57611c70600082611c44565b600181019050611c5d565b5050565b601f821115611cc057611c9181611b60565b611c9a84611b75565b81016020851015611ca9578190505b611cbd611cb585611b75565b830182611c5c565b50505b505050565b600082821c905092915050565b6000611ce360001984600802611cc5565b1980831691505092915050565b6000611cfc8383611cd2565b9150826002028217905092915050565b611d15826116c4565b67ffffffffffffffff811115611d2e57611d2d6113fc565b5b611d388254611b2f565b611d43828285611c7f565b600060209050601f831160018114611d765760008415611d64578287015190505b611d6e8582611cf0565b865550611dd6565b601f198416611d8486611b60565b60005b82811015611dac57848901518255600182019150602085019450602081019050611d87565b86831015611dc95784890151611dc5601f891682611cd2565b8355505b6001600288020188555050505b505050505050565b60006020820190508181036000830152611df8818461170a565b905092915050565b6000604082019050611e15600083018561165a565b611e22602083018461165a565b9392505050565b600081519050611e3881611531565b92915050565b6000611e51611e4c84611477565b61145c565b905082815260208101848484011115611e6d57611e6c6113e6565b5b611e788482856116e0565b509392505050565b600082601f830112611e9557611e946113e1565b5b8151611ea5848260208601611e3e565b91505092915050565b600080600060608486031215611ec757611ec66113d7565b5b6000611ed586828701611e29565b935050602084015167ffffffffffffffff811115611ef657611ef56113dc565b5b611f0286828701611e80565b925050604084015167ffffffffffffffff811115611f2357611f226113dc565b5b611f2f86828701611e80565b9150509250925092565b6000611f4482611527565b9150611f4f83611527565b9250828201905080821115611f6757611f66611a89565b5b92915050565b7f4e487b7100000000000000000000000000000000000000000000000000000000600052603260045260246000fdfea2646970667358221220725a47d84ff65f70eeb6115f1e147f1fbcb52ad93c6d20031dff094898aa2bfc64736f6c634300081c0033",
  "linkReferences": {},
  "deployedLinkReferences": {}
}