{
  "_format": "hh-sol-artifact-1",
  "contractName": "Voting",
  "sourceName": "contracts/Voting.sol",
  "abi": [
    {
      "inputs": [
        {
          "internalType": "address",
          "name": "_candidateManagerAddress",
          "type": "address"
        },
        {
          "internalType": "address",
          "name": "_electionAddress",
          "type": "address"
        }
      ],
      "stateMutability": "nonpayable",
      "type": "constructor"
    },
    {
      "anonymous": false,
      "inputs": [
        {
          "indexed": false,
          "internalType": "uint256",
          "name": "id",
          "type": "uint256"
        },
        {
          "indexed": false,
          "internalType": "string",
          "name": "full_name",
          "type": "string"
        },
        {
          "indexed": false,
          "internalType": "string",
          "name": "party",
          "type": "string"
        },
        {
          "indexed": false,
          "internalType": "uint256",
          "name": "vote_count",
          "type": "uint256"
        }
      ],
      "name": "CandidateResultsEvent",
      "type": "event"
    },
    {
      "anonymous": false,
      "inputs": [
        {
          "indexed": true,
          "internalType": "address",
          "name": "voter",
          "type": "address"
        },
        {
          "indexed": true,
          "internalType": "uint256",
          "name": "candidateId",
          "type": "uint256"
        }
      ],
      "name": "Voted",
      "type": "event"
    },
    {
      "inputs": [],
      "name": "candidateManager",
      "outputs": [
        {
          "internalType": "contract CandidateManager",
          "name": "",
          "type": "address"
        }
      ],
      "stateMutability": "view",
      "type": "function"
    },
    {
      "inputs": [],
      "name": "election",
      "outputs": [
        {
          "internalType": "contract Election",
          "name": "",
          "type": "address"
        }
      ],
      "stateMutability": "view",
      "type": "function"
    },
    {
      "inputs": [
        {
          "internalType": "uint256",
          "name": "_position_id",
          "type": "uint256"
        }
      ],
      "name": "getCandidatesForPosition",
      "outputs": [
        {
          "components": [
            {
              "internalType": "uint256",
              "name": "id",
              "type": "uint256"
            },
            {
              "internalType": "string",
              "name": "full_names",
              "type": "string"
            },
            {
              "internalType": "string",
              "name": "date_of_birth",
              "type": "string"
            },
            {
              "internalType": "string",
              "name": "cid",
              "type": "string"
            },
            {
              "internalType": "string",
              "name": "party",
              "type": "string"
            },
            {
              "internalType": "uint256",
              "name": "position_id",
              "type": "uint256"
            }
          ],
          "internalType": "struct Candidate[]",
          "name": "",
          "type": "tuple[]"
        }
      ],
      "stateMutability": "view",
      "type": "function"
    },
    {
      "inputs": [
        {
          "internalType": "uint256",
          "name": "_position_id",
          "type": "uint256"
        }
      ],
      "name": "getResultsByPosition",
      "outputs": [],
      "stateMutability": "nonpayable",
      "type": "function"
    },
    {
      "inputs": [
        {
          "internalType": "uint256",
          "name": "_candidate_id",
          "type": "uint256"
        },
        {
          "internalType": "uint256",
          "name": "_position_id",
          "type": "uint256"
        },
        {
          "internalType": "uint256",
          "name": "_election_id",
          "type": "uint256"
        }
      ],
      "name": "vote",
      "outputs": [],
      "stateMutability": "nonpayable",
      "type": "function"
    },
    {
      "inputs": [
        {
          "internalType": "address",
          "name": "",
          "type": "address"
        }
      ],
      "name": "voters",
      "outputs": [
        {
          "internalType": "bool",
          "name": "",
          "type": "bool"
        }
      ],
      "stateMutability": "view",
      "type": "function"
    }
  ],
  "bytecode": "0x608060405234801561001057600080fd5b506040516116363803806116368339818101604052810190610032919061011d565b81600160006101000a81548173ffffffffffffffffffffffffffffffffffffffff021916908373ffffffffffffffffffffffffffffffffffffffff160217905550806000806101000a81548173ffffffffffffffffffffffffffffffffffffffff021916908373ffffffffffffffffffffffffffffffffffffffff160217905550505061015d565b600080fd5b600073ffffffffffffffffffffffffffffffffffffffff82169050919050565b60006100ea826100bf565b9050919050565b6100fa816100df565b811461010557600080fd5b50565b600081519050610117816100f1565b92915050565b60008060408385031215610134576101336100ba565b5b600061014285828601610108565b925050602061015385828601610108565b9150509250929050565b6114ca8061016c6000396000f3fe608060405234801561001057600080fd5b50600436106100625760003560e01c80634b1d3ede146100675780634eb28243146100855780638a6655d6146100a1578063a3ec138d146100bd578063a6a41f44146100ed578063e7bf42cb1461010b575b600080fd5b61006f61013b565b60405161007c9190610820565b60405180910390f35b61009f600480360381019061009a9190610885565b61015f565b005b6100bb60048036038101906100b691906108b2565b6102a0565b005b6100d760048036038101906100d29190610943565b6106b1565b6040516100e4919061098b565b60405180910390f35b6100f56106d1565b60405161010291906109c7565b60405180910390f35b61012560048036038101906101209190610885565b6106f7565b6040516101329190610be1565b60405180910390f35b60008054906101000a900473ffffffffffffffffffffffffffffffffffffffff1681565b600061016a826106f7565b905060005b815181101561029b576000806000600160009054906101000a900473ffffffffffffffffffffffffffffffffffffffff1673ffffffffffffffffffffffffffffffffffffffff16634bd4644885886040518363ffffffff1660e01b81526004016101da929190610c12565b600060405180830381865afa1580156101f7573d6000803e3d6000fd5b505050506040513d6000823e3d601f19601f820116820180604052508101906102209190610d76565b505050509250925092507ff53f932d831b709760dc365104fcb054b6572afb646a71d07dc1cd8591a620c7838383600360008b81526020019081526020016000206000888152602001908152602001600020546040516102839493929190610f0a565b60405180910390a1505050808060010191505061016f565b505050565b60008060009054906101000a900473ffffffffffffffffffffffffffffffffffffffff1673ffffffffffffffffffffffffffffffffffffffff1663c84422396040518163ffffffff1660e01b8152600401602060405180830381865afa15801561030e573d6000803e3d6000fd5b505050506040513d601f19601f820116820180604052508101906103329190610f89565b905080610374576040517f08c379a000000000000000000000000000000000000000000000000000000000815260040161036b90611028565b60405180910390fd5b600260003373ffffffffffffffffffffffffffffffffffffffff1673ffffffffffffffffffffffffffffffffffffffff16815260200190815260200160002060009054906101000a900460ff1615610401576040517f08c379a00000000000000000000000000000000000000000000000000000000081526004016103f890611094565b60405180910390fd5b6000600160009054906101000a900473ffffffffffffffffffffffffffffffffffffffff1673ffffffffffffffffffffffffffffffffffffffff16634bd4644886856040518363ffffffff1660e01b8152600401610460929190610c12565b600060405180830381865afa15801561047d573d6000803e3d6000fd5b505050506040513d6000823e3d601f19601f820116820180604052508101906104a69190610d76565b5050505050509050600081036104f1576040517f08c379a00000000000000000000000000000000000000000000000000000000081526004016104e890611100565b60405180910390fd5b6000600160009054906101000a900473ffffffffffffffffffffffffffffffffffffffff1673ffffffffffffffffffffffffffffffffffffffff1663d8bb8d93876040518263ffffffff1660e01b815260040161054e9190611120565b602060405180830381865afa15801561056b573d6000803e3d6000fd5b505050506040513d601f19601f8201168201806040525081019061058f919061113b565b90508481146105d3576040517f08c379a00000000000000000000000000000000000000000000000000000000081526004016105ca906111b4565b60405180910390fd5b6001600260003373ffffffffffffffffffffffffffffffffffffffff1673ffffffffffffffffffffffffffffffffffffffff16815260200190815260200160002060006101000a81548160ff021916908315150217905550600360008681526020019081526020016000206000878152602001908152602001600020600081548092919061066090611203565b9190505550853373ffffffffffffffffffffffffffffffffffffffff167f4d99b957a2bc29a30ebd96a7be8e68fe50a3c701db28a91436490b7d53870ca460405160405180910390a3505050505050565b60026020528060005260406000206000915054906101000a900460ff1681565b600160009054906101000a900473ffffffffffffffffffffffffffffffffffffffff1681565b6060600160009054906101000a900473ffffffffffffffffffffffffffffffffffffffff1673ffffffffffffffffffffffffffffffffffffffff1663e7bf42cb836040518263ffffffff1660e01b81526004016107549190611120565b600060405180830381865afa158015610771573d6000803e3d6000fd5b505050506040513d6000823e3d601f19601f8201168201806040525081019061079a919061144b565b9050919050565b600073ffffffffffffffffffffffffffffffffffffffff82169050919050565b6000819050919050565b60006107e66107e16107dc846107a1565b6107c1565b6107a1565b9050919050565b60006107f8826107cb565b9050919050565b600061080a826107ed565b9050919050565b61081a816107ff565b82525050565b60006020820190506108356000830184610811565b92915050565b6000604051905090565b600080fd5b600080fd5b6000819050919050565b6108628161084f565b811461086d57600080fd5b50565b60008135905061087f81610859565b92915050565b60006020828403121561089b5761089a610845565b5b60006108a984828501610870565b91505092915050565b6000806000606084860312156108cb576108ca610845565b5b60006108d986828701610870565b93505060206108ea86828701610870565b92505060406108fb86828701610870565b9150509250925092565b6000610910826107a1565b9050919050565b61092081610905565b811461092b57600080fd5b50565b60008135905061093d81610917565b92915050565b60006020828403121561095957610958610845565b5b60006109678482850161092e565b91505092915050565b60008115159050919050565b61098581610970565b82525050565b60006020820190506109a0600083018461097c565b92915050565b60006109b1826107ed565b9050919050565b6109c1816109a6565b82525050565b60006020820190506109dc60008301846109b8565b92915050565b600081519050919050565b600082825260208201905092915050565b6000819050602082019050919050565b610a178161084f565b82525050565b600081519050919050565b600082825260208201905092915050565b60005b83811015610a57578082015181840152602081019050610a3c565b60008484015250505050565b6000601f19601f8301169050919050565b6000610a7f82610a1d565b610a898185610a28565b9350610a99818560208601610a39565b610aa281610a63565b840191505092915050565b600060c083016000830151610ac56000860182610a0e565b5060208301518482036020860152610add8282610a74565b91505060408301518482036040860152610af78282610a74565b91505060608301518482036060860152610b118282610a74565b91505060808301518482036080860152610b2b8282610a74565b91505060a0830151610b4060a0860182610a0e565b508091505092915050565b6000610b578383610aad565b905092915050565b6000602082019050919050565b6000610b77826109e2565b610b8181856109ed565b935083602082028501610b93856109fe565b8060005b85811015610bcf5784840389528151610bb08582610b4b565b9450610bbb83610b5f565b925060208a01995050600181019050610b97565b50829750879550505050505092915050565b60006020820190508181036000830152610bfb8184610b6c565b905092915050565b610c0c8161084f565b82525050565b6000604082019050610c276000830185610c03565b610c346020830184610c03565b9392505050565b600081519050610c4a81610859565b92915050565b600080fd5b600080fd5b7f4e487b7100000000000000000000000000000000000000000000000000000000600052604160045260246000fd5b610c9282610a63565b810181811067ffffffffffffffff82111715610cb157610cb0610c5a565b5b80604052505050565b6000610cc461083b565b9050610cd08282610c89565b919050565b600067ffffffffffffffff821115610cf057610cef610c5a565b5b610cf982610a63565b9050602081019050919050565b6000610d19610d1484610cd5565b610cba565b905082815260208101848484011115610d3557610d34610c55565b5b610d40848285610a39565b509392505050565b600082601f830112610d5d57610d5c610c50565b5b8151610d6d848260208601610d06565b91505092915050565b600080600080600080600060e0888a031215610d9557610d94610845565b5b6000610da38a828b01610c3b565b975050602088015167ffffffffffffffff811115610dc457610dc361084a565b5b610dd08a828b01610d48565b965050604088015167ffffffffffffffff811115610df157610df061084a565b5b610dfd8a828b01610d48565b955050606088015167ffffffffffffffff811115610e1e57610e1d61084a565b5b610e2a8a828b01610d48565b945050608088015167ffffffffffffffff811115610e4b57610e4a61084a565b5b610e578a828b01610d48565b93505060a088015167ffffffffffffffff811115610e7857610e7761084a565b5b610e848a828b01610d48565b92505060c088015167ffffffffffffffff811115610ea557610ea461084a565b5b610eb18a828b01610d48565b91505092959891949750929550565b600082825260208201905092915050565b6000610edc82610a1d565b610ee68185610ec0565b9350610ef6818560208601610a39565b610eff81610a63565b840191505092915050565b6000608082019050610f1f6000830187610c03565b8181036020830152610f318186610ed1565b90508181036040830152610f458185610ed1565b9050610f546060830184610c03565b95945050505050565b610f6681610970565b8114610f7157600080fd5b50565b600081519050610f8381610f5d565b92915050565b600060208284031215610f9f57610f9e610845565b5b6000610fad84828501610f74565b91505092915050565b7f456c656374696f6e204e6f742053746172746564206f722048617320456e646560008201527f6400000000000000000000000000000000000000000000000000000000000000602082015250565b6000611012602183610ec0565b915061101d82610fb6565b604082019050919050565b6000602082019050818103600083015261104181611005565b9050919050565b7f596f75206861766520616c726561647920766f74656400000000000000000000600082015250565b600061107e601683610ec0565b915061108982611048565b602082019050919050565b600060208201905081810360008301526110ad81611071565b9050919050565b7f496e76616c69642063616e646964617465000000000000000000000000000000600082015250565b60006110ea601183610ec0565b91506110f5826110b4565b602082019050919050565b60006020820190508181036000830152611119816110dd565b9050919050565b60006020820190506111356000830184610c03565b92915050565b60006020828403121561115157611150610845565b5b600061115f84828501610c3b565b91505092915050565b7f43616e646964617465204e6f74205679696e6720666f7220706f736974696f6e600082015250565b600061119e602083610ec0565b91506111a982611168565b602082019050919050565b600060208201905081810360008301526111cd81611191565b9050919050565b7f4e487b7100000000000000000000000000000000000000000000000000000000600052601160045260246000fd5b600061120e8261084f565b91507fffffffffffffffffffffffffffffffffffffffffffffffffffffffffffffffff82036112405761123f6111d4565b5b600182019050919050565b600067ffffffffffffffff82111561126657611265610c5a565b5b602082029050602081019050919050565b600080fd5b600080fd5b600080fd5b600060c0828403121561129c5761129b61127c565b5b6112a660c0610cba565b905060006112b684828501610c3b565b600083015250602082015167ffffffffffffffff8111156112da576112d9611281565b5b6112e684828501610d48565b602083015250604082015167ffffffffffffffff81111561130a57611309611281565b5b61131684828501610d48565b604083015250606082015167ffffffffffffffff81111561133a57611339611281565b5b61134684828501610d48565b606083015250608082015167ffffffffffffffff81111561136a57611369611281565b5b61137684828501610d48565b60808301525060a061138a84828501610c3b565b60a08301525092915050565b60006113a96113a48461124b565b610cba565b905080838252602082019050602084028301858111156113cc576113cb611277565b5b835b8181101561141357805167ffffffffffffffff8111156113f1576113f0610c50565b5b8086016113fe8982611286565b855260208501945050506020810190506113ce565b5050509392505050565b600082601f83011261143257611431610c50565b5b8151611442848260208601611396565b91505092915050565b60006020828403121561146157611460610845565b5b600082015167ffffffffffffffff81111561147f5761147e61084a565b5b61148b8482850161141d565b9150509291505056fea26469706673582212209231d4d31e6dfb5b2d3e61803fc1c08345b66b183383f52f7837b80136538da564736f6c634300081c0033",
  "linkReferences": {},
  "deployedLinkReferences": {}
}