{
  "_format": "hh-sol-artifact-1",
  "contractName": "CandidateManager",
  "sourceName": "contracts/CandidateManager.sol",
  "abi": [
    {
      "anonymous": false,
      "inputs": [
        {
          "indexed": true,
          "internalType": "uint256",
          "name": "candidateId",
          "type": "uint256"
        },
        {
          "indexed": false,
          "internalType": "string",
          "name": "name",
          "type": "string"
        }
      ],
      "name": "CandidateAdded",
      "type": "event"
    },
    {
      "inputs": [
        {
          "internalType": "string",
          "name": "_name",
          "type": "string"
        }
      ],
      "name": "addCandidate",
      "outputs": [],
      "stateMutability": "nonpayable",
      "type": "function"
    },
    {
      "inputs": [
        {
          "internalType": "uint256",
          "name": "",
          "type": "uint256"
        }
      ],
      "name": "candidates",
      "outputs": [
        {
          "internalType": "uint256",
          "name": "id",
          "type": "uint256"
        },
        {
          "internalType": "string",
          "name": "name",
          "type": "string"
        }
      ],
      "stateMutability": "view",
      "type": "function"
    },
    {
      "inputs": [],
      "name": "candidatesCount",
      "outputs": [
        {
          "internalType": "uint256",
          "name": "",
          "type": "uint256"
        }
      ],
      "stateMutability": "view",
      "type": "function"
    },
    {
      "inputs": [],
      "name": "getAllCandidates",
      "outputs": [
        {
          "components": [
            {
              "internalType": "uint256",
              "name": "id",
              "type": "uint256"
            },
            {
              "internalType": "string",
              "name": "name",
              "type": "string"
            }
          ],
          "internalType": "struct CandidateManager.Candidate[]",
          "name": "",
          "type": "tuple[]"
        }
      ],
      "stateMutability": "view",
      "type": "function"
    },
    {
      "inputs": [
        {
          "internalType": "uint256",
          "name": "_candidateId",
          "type": "uint256"
        }
      ],
      "name": "getCandidate",
      "outputs": [
        {
          "internalType": "uint256",
          "name": "",
          "type": "uint256"
        },
        {
          "internalType": "string",
          "name": "",
          "type": "string"
        }
      ],
      "stateMutability": "view",
      "type": "function"
    }
  ],
  "bytecode": "0x6080604052348015600f57600080fd5b50610d2d8061001f6000396000f3fe608060405234801561001057600080fd5b50600436106100575760003560e01c80632d35a8a21461005c5780632e6997fe1461007a5780633477ee2e1461009857806335b8e820146100c9578063462e91ec146100fa575b600080fd5b610064610116565b60405161007191906104dd565b60405180910390f35b61008261011c565b60405161008f9190610696565b60405180910390f35b6100b260048036038101906100ad91906106f8565b610286565b6040516100c092919061076f565b60405180910390f35b6100e360048036038101906100de91906106f8565b610332565b6040516100f192919061076f565b60405180910390f35b610114600480360381019061010f91906108d4565b610407565b005b60015481565b6060600060015467ffffffffffffffff81111561013c5761013b6107a9565b5b60405190808252806020026020018201604052801561017557816020015b6101626104aa565b81526020019060019003908161015a5790505b5090506000600190505b600154811161027e57600080828152602001908152602001600020604051806040016040529081600082015481526020016001820180546101bf9061094c565b80601f01602080910402602001604051908101604052809291908181526020018280546101eb9061094c565b80156102385780601f1061020d57610100808354040283529160200191610238565b820191906000526020600020905b81548152906001019060200180831161021b57829003601f168201915b5050505050815250508260018361024f91906109ac565b815181106102605761025f6109e0565b5b6020026020010181905250808061027690610a0f565b91505061017f565b508091505090565b60006020528060005260406000206000915090508060000154908060010180546102af9061094c565b80601f01602080910402602001604051908101604052809291908181526020018280546102db9061094c565b80156103285780601f106102fd57610100808354040283529160200191610328565b820191906000526020600020905b81548152906001019060200180831161030b57829003601f168201915b5050505050905082565b6000606060008060008581526020019081526020016000206040518060400160405290816000820154815260200160018201805461036f9061094c565b80601f016020809104026020016040519081016040528092919081815260200182805461039b9061094c565b80156103e85780601f106103bd576101008083540402835291602001916103e8565b820191906000526020600020905b8154815290600101906020018083116103cb57829003601f168201915b5050505050815250509050806000015181602001519250925050915091565b6001600081548092919061041a90610a0f565b9190505550604051806040016040528060015481526020018281525060008060015481526020019081526020016000206000820151816000015560208201518160010190816104699190610c03565b509050506001547fe83b2a43e7e82d975c8a0a6d2f045153c869e111136a34d1889ab7b598e396a38260405161049f9190610cd5565b60405180910390a250565b604051806040016040528060008152602001606081525090565b6000819050919050565b6104d7816104c4565b82525050565b60006020820190506104f260008301846104ce565b92915050565b600081519050919050565b600082825260208201905092915050565b6000819050602082019050919050565b61052d816104c4565b82525050565b600081519050919050565b600082825260208201905092915050565b60005b8381101561056d578082015181840152602081019050610552565b60008484015250505050565b6000601f19601f8301169050919050565b600061059582610533565b61059f818561053e565b93506105af81856020860161054f565b6105b881610579565b840191505092915050565b60006040830160008301516105db6000860182610524565b50602083015184820360208601526105f3828261058a565b9150508091505092915050565b600061060c83836105c3565b905092915050565b6000602082019050919050565b600061062c826104f8565b6106368185610503565b93508360208202850161064885610514565b8060005b8581101561068457848403895281516106658582610600565b945061067083610614565b925060208a0199505060018101905061064c565b50829750879550505050505092915050565b600060208201905081810360008301526106b08184610621565b905092915050565b6000604051905090565b600080fd5b600080fd5b6106d5816104c4565b81146106e057600080fd5b50565b6000813590506106f2816106cc565b92915050565b60006020828403121561070e5761070d6106c2565b5b600061071c848285016106e3565b91505092915050565b600082825260208201905092915050565b600061074182610533565b61074b8185610725565b935061075b81856020860161054f565b61076481610579565b840191505092915050565b600060408201905061078460008301856104ce565b81810360208301526107968184610736565b90509392505050565b600080fd5b600080fd5b7f4e487b7100000000000000000000000000000000000000000000000000000000600052604160045260246000fd5b6107e182610579565b810181811067ffffffffffffffff82111715610800576107ff6107a9565b5b80604052505050565b60006108136106b8565b905061081f82826107d8565b919050565b600067ffffffffffffffff82111561083f5761083e6107a9565b5b61084882610579565b9050602081019050919050565b82818337600083830152505050565b600061087761087284610824565b610809565b905082815260208101848484011115610893576108926107a4565b5b61089e848285610855565b509392505050565b600082601f8301126108bb576108ba61079f565b5b81356108cb848260208601610864565b91505092915050565b6000602082840312156108ea576108e96106c2565b5b600082013567ffffffffffffffff811115610908576109076106c7565b5b610914848285016108a6565b91505092915050565b7f4e487b7100000000000000000000000000000000000000000000000000000000600052602260045260246000fd5b6000600282049050600182168061096457607f821691505b6020821081036109775761097661091d565b5b50919050565b7f4e487b7100000000000000000000000000000000000000000000000000000000600052601160045260246000fd5b60006109b7826104c4565b91506109c2836104c4565b92508282039050818111156109da576109d961097d565b5b92915050565b7f4e487b7100000000000000000000000000000000000000000000000000000000600052603260045260246000fd5b6000610a1a826104c4565b91507fffffffffffffffffffffffffffffffffffffffffffffffffffffffffffffffff8203610a4c57610a4b61097d565b5b600182019050919050565b60008190508160005260206000209050919050565b60006020601f8301049050919050565b600082821b905092915050565b600060088302610ab97fffffffffffffffffffffffffffffffffffffffffffffffffffffffffffffffff82610a7c565b610ac38683610a7c565b95508019841693508086168417925050509392505050565b6000819050919050565b6000610b00610afb610af6846104c4565b610adb565b6104c4565b9050919050565b6000819050919050565b610b1a83610ae5565b610b2e610b2682610b07565b848454610a89565b825550505050565b600090565b610b43610b36565b610b4e818484610b11565b505050565b5b81811015610b7257610b67600082610b3b565b600181019050610b54565b5050565b601f821115610bb757610b8881610a57565b610b9184610a6c565b81016020851015610ba0578190505b610bb4610bac85610a6c565b830182610b53565b50505b505050565b600082821c905092915050565b6000610bda60001984600802610bbc565b1980831691505092915050565b6000610bf38383610bc9565b9150826002028217905092915050565b610c0c82610533565b67ffffffffffffffff811115610c2557610c246107a9565b5b610c2f825461094c565b610c3a828285610b76565b600060209050601f831160018114610c6d5760008415610c5b578287015190505b610c658582610be7565b865550610ccd565b601f198416610c7b86610a57565b60005b82811015610ca357848901518255600182019150602085019450602081019050610c7e565b86831015610cc05784890151610cbc601f891682610bc9565b8355505b6001600288020188555050505b505050505050565b60006020820190508181036000830152610cef8184610736565b90509291505056fea2646970667358221220573428ff0f88378f4d842ed025160e6642c238c652ead7862cbd012b3ce0f9d464736f6c634300081c0033",
  "linkReferences": {},
  "deployedLinkReferences": {}
}