{
  "_format": "hh-sol-artifact-1",
  "contractName": "Voting",
  "sourceName": "contracts/Voting.sol",
  "abi": [
    {
      "inputs": [
        {
          "internalType": "address",
          "name": "_candidateManagerAddress",
          "type": "address"
        }
      ],
      "stateMutability": "nonpayable",
      "type": "constructor"
    },
    {
      "anonymous": false,
      "inputs": [
        {
          "indexed": true,
          "internalType": "address",
          "name": "voter",
          "type": "address"
        },
        {
          "indexed": true,
          "internalType": "uint256",
          "name": "candidateId",
          "type": "uint256"
        }
      ],
      "name": "Voted",
      "type": "event"
    },
    {
      "inputs": [],
      "name": "candidateManager",
      "outputs": [
        {
          "internalType": "contract CandidateManager",
          "name": "",
          "type": "address"
        }
      ],
      "stateMutability": "view",
      "type": "function"
    },
    {
      "inputs": [
        {
          "internalType": "uint256",
          "name": "_candidateId",
          "type": "uint256"
        }
      ],
      "name": "getCandidate",
      "outputs": [
        {
          "internalType": "uint256",
          "name": "",
          "type": "uint256"
        },
        {
          "internalType": "string",
          "name": "",
          "type": "string"
        },
        {
          "internalType": "uint256",
          "name": "",
          "type": "uint256"
        }
      ],
      "stateMutability": "view",
      "type": "function"
    },
    {
      "inputs": [
        {
          "internalType": "uint256",
          "name": "_candidateId",
          "type": "uint256"
        }
      ],
      "name": "vote",
      "outputs": [],
      "stateMutability": "nonpayable",
      "type": "function"
    },
    {
      "inputs": [
        {
          "internalType": "address",
          "name": "",
          "type": "address"
        }
      ],
      "name": "voters",
      "outputs": [
        {
          "internalType": "bool",
          "name": "",
          "type": "bool"
        }
      ],
      "stateMutability": "view",
      "type": "function"
    },
    {
      "inputs": [
        {
          "internalType": "uint256",
          "name": "",
          "type": "uint256"
        }
      ],
      "name": "votes",
      "outputs": [
        {
          "internalType": "uint256",
          "name": "",
          "type": "uint256"
        }
      ],
      "stateMutability": "view",
      "type": "function"
    }
  ],
  "bytecode": "0x608060405234801561001057600080fd5b50604051610b97380380610b97833981810160405281019061003291906100db565b806000806101000a81548173ffffffffffffffffffffffffffffffffffffffff021916908373ffffffffffffffffffffffffffffffffffffffff16021790555050610108565b600080fd5b600073ffffffffffffffffffffffffffffffffffffffff82169050919050565b60006100a88261007d565b9050919050565b6100b88161009d565b81146100c357600080fd5b50565b6000815190506100d5816100af565b92915050565b6000602082840312156100f1576100f0610078565b5b60006100ff848285016100c6565b91505092915050565b610a80806101176000396000f3fe608060405234801561001057600080fd5b50600436106100575760003560e01c80630121b93f1461005c57806335b8e820146100785780635df81330146100aa578063a3ec138d146100da578063a6a41f441461010a575b600080fd5b610076600480360381019061007191906104d7565b610128565b005b610092600480360381019061008d91906104d7565b610359565b6040516100a1939291906105a3565b60405180910390f35b6100c460048036038101906100bf91906104d7565b610431565b6040516100d191906105e1565b60405180910390f35b6100f460048036038101906100ef919061065a565b610449565b60405161010191906106a2565b60405180910390f35b610112610469565b60405161011f919061071c565b60405180910390f35b600160003373ffffffffffffffffffffffffffffffffffffffff1673ffffffffffffffffffffffffffffffffffffffff16815260200190815260200160002060009054906101000a900460ff16156101b5576040517f08c379a00000000000000000000000000000000000000000000000000000000081526004016101ac90610783565b60405180910390fd5b600081118015610253575060008054906101000a900473ffffffffffffffffffffffffffffffffffffffff1673ffffffffffffffffffffffffffffffffffffffff16632d35a8a26040518163ffffffff1660e01b8152600401602060405180830381865afa15801561022b573d6000803e3d6000fd5b505050506040513d601f19601f8201168201806040525081019061024f91906107b8565b8111155b610292576040517f08c379a000000000000000000000000000000000000000000000000000000000815260040161028990610831565b60405180910390fd5b60018060003373ffffffffffffffffffffffffffffffffffffffff1673ffffffffffffffffffffffffffffffffffffffff16815260200190815260200160002060006101000a81548160ff02191690831515021790555060026000828152602001908152602001600020600081548092919061030d90610880565b9190505550803373ffffffffffffffffffffffffffffffffffffffff167f4d99b957a2bc29a30ebd96a7be8e68fe50a3c701db28a91436490b7d53870ca460405160405180910390a350565b6000606060008060008060009054906101000a900473ffffffffffffffffffffffffffffffffffffffff1673ffffffffffffffffffffffffffffffffffffffff166335b8e820876040518263ffffffff1660e01b81526004016103bc91906105e1565b600060405180830381865afa1580156103d9573d6000803e3d6000fd5b505050506040513d6000823e3d601f19601f8201168201806040525081019061040291906109ee565b915091506000600260008881526020019081526020016000205490508282829550955095505050509193909250565b60026020528060005260406000206000915090505481565b60016020528060005260406000206000915054906101000a900460ff1681565b60008054906101000a900473ffffffffffffffffffffffffffffffffffffffff1681565b6000604051905090565b600080fd5b600080fd5b6000819050919050565b6104b4816104a1565b81146104bf57600080fd5b50565b6000813590506104d1816104ab565b92915050565b6000602082840312156104ed576104ec610497565b5b60006104fb848285016104c2565b91505092915050565b61050d816104a1565b82525050565b600081519050919050565b600082825260208201905092915050565b60005b8381101561054d578082015181840152602081019050610532565b60008484015250505050565b6000601f19601f8301169050919050565b600061057582610513565b61057f818561051e565b935061058f81856020860161052f565b61059881610559565b840191505092915050565b60006060820190506105b86000830186610504565b81810360208301526105ca818561056a565b90506105d96040830184610504565b949350505050565b60006020820190506105f66000830184610504565b92915050565b600073ffffffffffffffffffffffffffffffffffffffff82169050919050565b6000610627826105fc565b9050919050565b6106378161061c565b811461064257600080fd5b50565b6000813590506106548161062e565b92915050565b6000602082840312156106705761066f610497565b5b600061067e84828501610645565b91505092915050565b60008115159050919050565b61069c81610687565b82525050565b60006020820190506106b76000830184610693565b92915050565b6000819050919050565b60006106e26106dd6106d8846105fc565b6106bd565b6105fc565b9050919050565b60006106f4826106c7565b9050919050565b6000610706826106e9565b9050919050565b610716816106fb565b82525050565b6000602082019050610731600083018461070d565b92915050565b7f596f75206861766520616c726561647920766f74656400000000000000000000600082015250565b600061076d60168361051e565b915061077882610737565b602082019050919050565b6000602082019050818103600083015261079c81610760565b9050919050565b6000815190506107b2816104ab565b92915050565b6000602082840312156107ce576107cd610497565b5b60006107dc848285016107a3565b91505092915050565b7f496e76616c69642063616e646964617465000000000000000000000000000000600082015250565b600061081b60118361051e565b9150610826826107e5565b602082019050919050565b6000602082019050818103600083015261084a8161080e565b9050919050565b7f4e487b7100000000000000000000000000000000000000000000000000000000600052601160045260246000fd5b600061088b826104a1565b91507fffffffffffffffffffffffffffffffffffffffffffffffffffffffffffffffff82036108bd576108bc610851565b5b600182019050919050565b600080fd5b600080fd5b7f4e487b7100000000000000000000000000000000000000000000000000000000600052604160045260246000fd5b61090a82610559565b810181811067ffffffffffffffff82111715610929576109286108d2565b5b80604052505050565b600061093c61048d565b90506109488282610901565b919050565b600067ffffffffffffffff821115610968576109676108d2565b5b61097182610559565b9050602081019050919050565b600061099161098c8461094d565b610932565b9050828152602081018484840111156109ad576109ac6108cd565b5b6109b884828561052f565b509392505050565b600082601f8301126109d5576109d46108c8565b5b81516109e584826020860161097e565b91505092915050565b60008060408385031215610a0557610a04610497565b5b6000610a13858286016107a3565b925050602083015167ffffffffffffffff811115610a3457610a3361049c565b5b610a40858286016109c0565b915050925092905056fea26469706673582212200fe3d01e00bc5b0a41366acea90d1c47aa798268dbab484b2efb545450421db564736f6c634300081c0033",
  "linkReferences": {},
  "deployedLinkReferences": {}
}