{
  "_format": "hh-sol-artifact-1",
  "contractName": "Voting",
  "sourceName": "contracts/Voting.sol",
  "abi": [
    {
      "inputs": [
        {
          "internalType": "address",
          "name": "_candidateManagerAddress",
          "type": "address"
        },
        {
          "internalType": "address",
          "name": "_electionAddress",
          "type": "address"
        }
      ],
      "stateMutability": "nonpayable",
      "type": "constructor"
    },
    {
      "anonymous": false,
      "inputs": [
        {
          "indexed": true,
          "internalType": "address",
          "name": "voter",
          "type": "address"
        },
        {
          "indexed": true,
          "internalType": "uint256",
          "name": "candidateId",
          "type": "uint256"
        }
      ],
      "name": "Voted",
      "type": "event"
    },
    {
      "inputs": [],
      "name": "candidateManager",
      "outputs": [
        {
          "internalType": "contract CandidateManager",
          "name": "",
          "type": "address"
        }
      ],
      "stateMutability": "view",
      "type": "function"
    },
    {
      "inputs": [],
      "name": "election",
      "outputs": [
        {
          "internalType": "contract Election",
          "name": "",
          "type": "address"
        }
      ],
      "stateMutability": "view",
      "type": "function"
    },
    {
      "inputs": [
        {
          "internalType": "uint256",
          "name": "_position_id",
          "type": "uint256"
        }
      ],
      "name": "getResultsByPosition",
      "outputs": [
        {
          "components": [
            {
              "internalType": "uint256",
              "name": "id",
              "type": "uint256"
            },
            {
              "internalType": "string",
              "name": "full_name",
              "type": "string"
            },
            {
              "internalType": "string",
              "name": "party",
              "type": "string"
            },
            {
              "internalType": "uint256",
              "name": "vote_count",
              "type": "uint256"
            }
          ],
          "internalType": "struct Voting.CandidateResult[]",
          "name": "",
          "type": "tuple[]"
        }
      ],
      "stateMutability": "view",
      "type": "function"
    },
    {
      "inputs": [
        {
          "internalType": "uint256",
          "name": "_candidate_id",
          "type": "uint256"
        },
        {
          "internalType": "uint256",
          "name": "_position_id",
          "type": "uint256"
        },
        {
          "internalType": "uint256",
          "name": "_election_id",
          "type": "uint256"
        }
      ],
      "name": "vote",
      "outputs": [],
      "stateMutability": "nonpayable",
      "type": "function"
    },
    {
      "inputs": [
        {
          "internalType": "address",
          "name": "",
          "type": "address"
        }
      ],
      "name": "voters",
      "outputs": [
        {
          "internalType": "bool",
          "name": "",
          "type": "bool"
        }
      ],
      "stateMutability": "view",
      "type": "function"
    }
  ],
  "bytecode": "0x608060405234801561001057600080fd5b506040516113a83803806113a88339818101604052810190610032919061011d565b81600160006101000a81548173ffffffffffffffffffffffffffffffffffffffff021916908373ffffffffffffffffffffffffffffffffffffffff160217905550806000806101000a81548173ffffffffffffffffffffffffffffffffffffffff021916908373ffffffffffffffffffffffffffffffffffffffff160217905550505061015d565b600080fd5b600073ffffffffffffffffffffffffffffffffffffffff82169050919050565b60006100ea826100bf565b9050919050565b6100fa816100df565b811461010557600080fd5b50565b600081519050610117816100f1565b92915050565b60008060408385031215610134576101336100ba565b5b600061014285828601610108565b925050602061015385828601610108565b9150509250929050565b61123c8061016c6000396000f3fe608060405234801561001057600080fd5b50600436106100575760003560e01c80634b1d3ede1461005c5780634eb282431461007a5780638a6655d6146100aa578063a3ec138d146100c6578063a6a41f44146100f6575b600080fd5b610064610114565b604051610071919061086c565b60405180910390f35b610094600480360381019061008f91906108d1565b610138565b6040516100a19190610ac9565b60405180910390f35b6100c460048036038101906100bf9190610aeb565b61036d565b005b6100e060048036038101906100db9190610b7c565b61077f565b6040516100ed9190610bc4565b60405180910390f35b6100fe61079f565b60405161010b9190610c00565b60405180910390f35b60008054906101000a900473ffffffffffffffffffffffffffffffffffffffff1681565b60606000600160009054906101000a900473ffffffffffffffffffffffffffffffffffffffff1673ffffffffffffffffffffffffffffffffffffffff1663d8164e65846040518263ffffffff1660e01b81526004016101979190610c2a565b602060405180830381865afa1580156101b4573d6000803e3d6000fd5b505050506040513d601f19601f820116820180604052508101906101d89190610c5a565b905060008167ffffffffffffffff8111156101f6576101f5610c87565b5b60405190808252806020026020018201604052801561022f57816020015b61021c6107c5565b8152602001906001900390816102145790505b50905060005b82811015610362576000806000600160009054906101000a900473ffffffffffffffffffffffffffffffffffffffff1673ffffffffffffffffffffffffffffffffffffffff16634bd46448858a6040518363ffffffff1660e01b815260040161029f929190610cb6565b600060405180830381865afa1580156102bc573d6000803e3d6000fd5b505050506040513d6000823e3d601f19601f820116820180604052508101906102e59190610dd6565b505050509250925092506040518060800160405280848152602001838152602001828152602001600360008b815260200190815260200160002060008681526020019081526020016000205481525085858151811061034757610346610f20565b5b60200260200101819052505050508080600101915050610235565b508092505050919050565b60008060009054906101000a900473ffffffffffffffffffffffffffffffffffffffff1673ffffffffffffffffffffffffffffffffffffffff1663c84422396040518163ffffffff1660e01b8152600401602060405180830381865afa1580156103db573d6000803e3d6000fd5b505050506040513d601f19601f820116820180604052508101906103ff9190610f7b565b90508015610442576040517f08c379a00000000000000000000000000000000000000000000000000000000081526004016104399061102b565b60405180910390fd5b600260003373ffffffffffffffffffffffffffffffffffffffff1673ffffffffffffffffffffffffffffffffffffffff16815260200190815260200160002060009054906101000a900460ff16156104cf576040517f08c379a00000000000000000000000000000000000000000000000000000000081526004016104c690611097565b60405180910390fd5b6000600160009054906101000a900473ffffffffffffffffffffffffffffffffffffffff1673ffffffffffffffffffffffffffffffffffffffff16634bd4644886856040518363ffffffff1660e01b815260040161052e929190610cb6565b600060405180830381865afa15801561054b573d6000803e3d6000fd5b505050506040513d6000823e3d601f19601f820116820180604052508101906105749190610dd6565b5050505050509050600081036105bf576040517f08c379a00000000000000000000000000000000000000000000000000000000081526004016105b690611103565b60405180910390fd5b6000600160009054906101000a900473ffffffffffffffffffffffffffffffffffffffff1673ffffffffffffffffffffffffffffffffffffffff1663d8bb8d93876040518263ffffffff1660e01b815260040161061c9190610c2a565b602060405180830381865afa158015610639573d6000803e3d6000fd5b505050506040513d601f19601f8201168201806040525081019061065d9190610c5a565b90508481146106a1576040517f08c379a00000000000000000000000000000000000000000000000000000000081526004016106989061116f565b60405180910390fd5b6001600260003373ffffffffffffffffffffffffffffffffffffffff1673ffffffffffffffffffffffffffffffffffffffff16815260200190815260200160002060006101000a81548160ff021916908315150217905550600360008681526020019081526020016000206000878152602001908152602001600020600081548092919061072e906111be565b9190505550853373ffffffffffffffffffffffffffffffffffffffff167f4d99b957a2bc29a30ebd96a7be8e68fe50a3c701db28a91436490b7d53870ca460405160405180910390a3505050505050565b60026020528060005260406000206000915054906101000a900460ff1681565b600160009054906101000a900473ffffffffffffffffffffffffffffffffffffffff1681565b6040518060800160405280600081526020016060815260200160608152602001600081525090565b600073ffffffffffffffffffffffffffffffffffffffff82169050919050565b6000819050919050565b600061083261082d610828846107ed565b61080d565b6107ed565b9050919050565b600061084482610817565b9050919050565b600061085682610839565b9050919050565b6108668161084b565b82525050565b6000602082019050610881600083018461085d565b92915050565b6000604051905090565b600080fd5b600080fd5b6000819050919050565b6108ae8161089b565b81146108b957600080fd5b50565b6000813590506108cb816108a5565b92915050565b6000602082840312156108e7576108e6610891565b5b60006108f5848285016108bc565b91505092915050565b600081519050919050565b600082825260208201905092915050565b6000819050602082019050919050565b6109338161089b565b82525050565b600081519050919050565b600082825260208201905092915050565b60005b83811015610973578082015181840152602081019050610958565b60008484015250505050565b6000601f19601f8301169050919050565b600061099b82610939565b6109a58185610944565b93506109b5818560208601610955565b6109be8161097f565b840191505092915050565b60006080830160008301516109e1600086018261092a565b50602083015184820360208601526109f98282610990565b91505060408301518482036040860152610a138282610990565b9150506060830151610a28606086018261092a565b508091505092915050565b6000610a3f83836109c9565b905092915050565b6000602082019050919050565b6000610a5f826108fe565b610a698185610909565b935083602082028501610a7b8561091a565b8060005b85811015610ab75784840389528151610a988582610a33565b9450610aa383610a47565b925060208a01995050600181019050610a7f565b50829750879550505050505092915050565b60006020820190508181036000830152610ae38184610a54565b905092915050565b600080600060608486031215610b0457610b03610891565b5b6000610b12868287016108bc565b9350506020610b23868287016108bc565b9250506040610b34868287016108bc565b9150509250925092565b6000610b49826107ed565b9050919050565b610b5981610b3e565b8114610b6457600080fd5b50565b600081359050610b7681610b50565b92915050565b600060208284031215610b9257610b91610891565b5b6000610ba084828501610b67565b91505092915050565b60008115159050919050565b610bbe81610ba9565b82525050565b6000602082019050610bd96000830184610bb5565b92915050565b6000610bea82610839565b9050919050565b610bfa81610bdf565b82525050565b6000602082019050610c156000830184610bf1565b92915050565b610c248161089b565b82525050565b6000602082019050610c3f6000830184610c1b565b92915050565b600081519050610c54816108a5565b92915050565b600060208284031215610c7057610c6f610891565b5b6000610c7e84828501610c45565b91505092915050565b7f4e487b7100000000000000000000000000000000000000000000000000000000600052604160045260246000fd5b6000604082019050610ccb6000830185610c1b565b610cd86020830184610c1b565b9392505050565b600080fd5b600080fd5b610cf28261097f565b810181811067ffffffffffffffff82111715610d1157610d10610c87565b5b80604052505050565b6000610d24610887565b9050610d308282610ce9565b919050565b600067ffffffffffffffff821115610d5057610d4f610c87565b5b610d598261097f565b9050602081019050919050565b6000610d79610d7484610d35565b610d1a565b905082815260208101848484011115610d9557610d94610ce4565b5b610da0848285610955565b509392505050565b600082601f830112610dbd57610dbc610cdf565b5b8151610dcd848260208601610d66565b91505092915050565b600080600080600080600060e0888a031215610df557610df4610891565b5b6000610e038a828b01610c45565b975050602088015167ffffffffffffffff811115610e2457610e23610896565b5b610e308a828b01610da8565b965050604088015167ffffffffffffffff811115610e5157610e50610896565b5b610e5d8a828b01610da8565b955050606088015167ffffffffffffffff811115610e7e57610e7d610896565b5b610e8a8a828b01610da8565b945050608088015167ffffffffffffffff811115610eab57610eaa610896565b5b610eb78a828b01610da8565b93505060a088015167ffffffffffffffff811115610ed857610ed7610896565b5b610ee48a828b01610da8565b92505060c088015167ffffffffffffffff811115610f0557610f04610896565b5b610f118a828b01610da8565b91505092959891949750929550565b7f4e487b7100000000000000000000000000000000000000000000000000000000600052603260045260246000fd5b610f5881610ba9565b8114610f6357600080fd5b50565b600081519050610f7581610f4f565b92915050565b600060208284031215610f9157610f90610891565b5b6000610f9f84828501610f66565b91505092915050565b600082825260208201905092915050565b7f456c656374696f6e204e6f742053746172746564206f722048617320456e646560008201527f6400000000000000000000000000000000000000000000000000000000000000602082015250565b6000611015602183610fa8565b915061102082610fb9565b604082019050919050565b6000602082019050818103600083015261104481611008565b9050919050565b7f596f75206861766520616c726561647920766f74656400000000000000000000600082015250565b6000611081601683610fa8565b915061108c8261104b565b602082019050919050565b600060208201905081810360008301526110b081611074565b9050919050565b7f496e76616c69642063616e646964617465000000000000000000000000000000600082015250565b60006110ed601183610fa8565b91506110f8826110b7565b602082019050919050565b6000602082019050818103600083015261111c816110e0565b9050919050565b7f43616e646964617465204e6f74205679696e6720666f7220706f736974696f6e600082015250565b6000611159602083610fa8565b915061116482611123565b602082019050919050565b600060208201905081810360008301526111888161114c565b9050919050565b7f4e487b7100000000000000000000000000000000000000000000000000000000600052601160045260246000fd5b60006111c98261089b565b91507fffffffffffffffffffffffffffffffffffffffffffffffffffffffffffffffff82036111fb576111fa61118f565b5b60018201905091905056fea26469706673582212201cb585670e11322e479b3ae649dec1fde32690c219ba61a7cd2fed61ce123f3764736f6c634300081c0033",
  "linkReferences": {},
  "deployedLinkReferences": {}
}