{
  "_format": "hh-sol-artifact-1",
  "contractName": "Voting",
  "sourceName": "contracts/Voting.sol",
  "abi": [
    {
      "inputs": [
        {
          "internalType": "address",
          "name": "_candidateManagerAddress",
          "type": "address"
        },
        {
          "internalType": "address",
          "name": "_electionAddress",
          "type": "address"
        }
      ],
      "stateMutability": "nonpayable",
      "type": "constructor"
    },
    {
      "anonymous": false,
      "inputs": [
        {
          "indexed": false,
          "internalType": "uint256",
          "name": "id",
          "type": "uint256"
        },
        {
          "indexed": false,
          "internalType": "string",
          "name": "full_name",
          "type": "string"
        },
        {
          "indexed": false,
          "internalType": "string",
          "name": "party",
          "type": "string"
        },
        {
          "indexed": false,
          "internalType": "uint256",
          "name": "vote_count",
          "type": "uint256"
        }
      ],
      "name": "CandidateResultsEvent",
      "type": "event"
    },
    {
      "anonymous": false,
      "inputs": [
        {
          "indexed": true,
          "internalType": "address",
          "name": "voter",
          "type": "address"
        },
        {
          "indexed": true,
          "internalType": "uint256",
          "name": "candidateId",
          "type": "uint256"
        }
      ],
      "name": "Voted",
      "type": "event"
    },
    {
      "inputs": [],
      "name": "candidateManager",
      "outputs": [
        {
          "internalType": "contract CandidateManager",
          "name": "",
          "type": "address"
        }
      ],
      "stateMutability": "view",
      "type": "function"
    },
    {
      "inputs": [],
      "name": "election",
      "outputs": [
        {
          "internalType": "contract Election",
          "name": "",
          "type": "address"
        }
      ],
      "stateMutability": "view",
      "type": "function"
    },
    {
      "inputs": [
        {
          "internalType": "uint256",
          "name": "_position_id",
          "type": "uint256"
        },
        {
          "internalType": "uint256",
          "name": "_election_id",
          "type": "uint256"
        }
      ],
      "name": "getCandidatesForPosition",
      "outputs": [
        {
          "components": [
            {
              "internalType": "uint256",
              "name": "id",
              "type": "uint256"
            },
            {
              "internalType": "string",
              "name": "full_names",
              "type": "string"
            },
            {
              "internalType": "string",
              "name": "date_of_birth",
              "type": "string"
            },
            {
              "internalType": "string",
              "name": "cid",
              "type": "string"
            },
            {
              "internalType": "string",
              "name": "party",
              "type": "string"
            },
            {
              "internalType": "uint256",
              "name": "position_id",
              "type": "uint256"
            },
            {
              "internalType": "uint256",
              "name": "election_id",
              "type": "uint256"
            }
          ],
          "internalType": "struct Candidate[]",
          "name": "",
          "type": "tuple[]"
        }
      ],
      "stateMutability": "view",
      "type": "function"
    },
    {
      "inputs": [
        {
          "internalType": "uint256",
          "name": "_position_id",
          "type": "uint256"
        },
        {
          "internalType": "uint256",
          "name": "_election_id",
          "type": "uint256"
        }
      ],
      "name": "getResultsByPosition",
      "outputs": [],
      "stateMutability": "nonpayable",
      "type": "function"
    },
    {
      "inputs": [
        {
          "internalType": "uint256",
          "name": "_candidate_id",
          "type": "uint256"
        },
        {
          "internalType": "uint256",
          "name": "_position_id",
          "type": "uint256"
        },
        {
          "internalType": "uint256",
          "name": "_election_id",
          "type": "uint256"
        }
      ],
      "name": "vote",
      "outputs": [],
      "stateMutability": "nonpayable",
      "type": "function"
    },
    {
      "inputs": [
        {
          "internalType": "address",
          "name": "",
          "type": "address"
        },
        {
          "internalType": "uint256",
          "name": "",
          "type": "uint256"
        }
      ],
      "name": "voters",
      "outputs": [
        {
          "internalType": "bool",
          "name": "",
          "type": "bool"
        }
      ],
      "stateMutability": "view",
      "type": "function"
    }
  ],
  "bytecode": "0x608060405234801561001057600080fd5b506040516117303803806117308339818101604052810190610032919061011d565b81600160006101000a81548173ffffffffffffffffffffffffffffffffffffffff021916908373ffffffffffffffffffffffffffffffffffffffff160217905550806000806101000a81548173ffffffffffffffffffffffffffffffffffffffff021916908373ffffffffffffffffffffffffffffffffffffffff160217905550505061015d565b600080fd5b600073ffffffffffffffffffffffffffffffffffffffff82169050919050565b60006100ea826100bf565b9050919050565b6100fa816100df565b811461010557600080fd5b50565b600081519050610117816100f1565b92915050565b60008060408385031215610134576101336100ba565b5b600061014285828601610108565b925050602061015385828601610108565b9150509250929050565b6115c48061016c6000396000f3fe608060405234801561001057600080fd5b50600436106100625760003560e01c80634b1d3ede1461006757806354a4ea65146100855780635c134d66146100b5578063693487cd146100e55780638a6655d614610101578063a6a41f441461011d575b600080fd5b61006f61013b565b60405161007c9190610878565b60405180910390f35b61009f600480360381019061009a91906108dd565b61015f565b6040516100ac9190610b2f565b60405180910390f35b6100cf60048036038101906100ca9190610b8f565b61020c565b6040516100dc9190610bea565b60405180910390f35b6100ff60048036038101906100fa91906108dd565b61023b565b005b61011b60048036038101906101169190610c05565b61039c565b005b6101256107d3565b6040516101329190610c79565b60405180910390f35b60008054906101000a900473ffffffffffffffffffffffffffffffffffffffff1681565b6060600160009054906101000a900473ffffffffffffffffffffffffffffffffffffffff1673ffffffffffffffffffffffffffffffffffffffff166354a4ea6584846040518363ffffffff1660e01b81526004016101be929190610ca3565b600060405180830381865afa1580156101db573d6000803e3d6000fd5b505050506040513d6000823e3d601f19601f82011682018060405250810190610204919061101b565b905092915050565b60026020528160005260406000206020528060005260406000206000915091509054906101000a900460ff1681565b6000610247838361015f565b905060005b8151811015610396576000806000600160009054906101000a900473ffffffffffffffffffffffffffffffffffffffff1673ffffffffffffffffffffffffffffffffffffffff16634bd464488686815181106102ab576102aa611064565b5b602002602001015160000151896040518363ffffffff1660e01b81526004016102d5929190610ca3565b600060405180830381865afa1580156102f2573d6000803e3d6000fd5b505050506040513d6000823e3d601f19601f8201168201806040525081019061031b9190611093565b505050509250925092507ff53f932d831b709760dc365104fcb054b6572afb646a71d07dc1cd8591a620c7838383600360008c815260200190815260200160002060008881526020019081526020016000205460405161037e9493929190611227565b60405180910390a1505050808060010191505061024c565b50505050565b60008054906101000a900473ffffffffffffffffffffffffffffffffffffffff1673ffffffffffffffffffffffffffffffffffffffff16636ee17f6f826040518263ffffffff1660e01b81526004016103f5919061127a565b602060405180830381865afa158015610412573d6000803e3d6000fd5b505050506040513d601f19601f8201168201806040525081019061043691906112c1565b610475576040517f08c379a000000000000000000000000000000000000000000000000000000000815260040161046c90611360565b60405180910390fd5b600260003373ffffffffffffffffffffffffffffffffffffffff1673ffffffffffffffffffffffffffffffffffffffff168152602001908152602001600020600083815260200190815260200160002060009054906101000a900460ff1615610513576040517f08c379a000000000000000000000000000000000000000000000000000000000815260040161050a906113f2565b60405180910390fd5b6000600160009054906101000a900473ffffffffffffffffffffffffffffffffffffffff1673ffffffffffffffffffffffffffffffffffffffff16634bd4644885846040518363ffffffff1660e01b8152600401610572929190610ca3565b600060405180830381865afa15801561058f573d6000803e3d6000fd5b505050506040513d6000823e3d601f19601f820116820180604052508101906105b89190611093565b505050505050905060008103610603576040517f08c379a00000000000000000000000000000000000000000000000000000000081526004016105fa9061145e565b60405180910390fd5b6000600160009054906101000a900473ffffffffffffffffffffffffffffffffffffffff1673ffffffffffffffffffffffffffffffffffffffff1663d8bb8d93866040518263ffffffff1660e01b8152600401610660919061127a565b602060405180830381865afa15801561067d573d6000803e3d6000fd5b505050506040513d601f19601f820116820180604052508101906106a1919061147e565b90508381146106e5576040517f08c379a00000000000000000000000000000000000000000000000000000000081526004016106dc906114f7565b60405180910390fd5b6001600260003373ffffffffffffffffffffffffffffffffffffffff1673ffffffffffffffffffffffffffffffffffffffff168152602001908152602001600020600086815260200190815260200160002060006101000a81548160ff021916908315150217905550600360008581526020019081526020016000206000868152602001908152602001600020600081548092919061078390611546565b9190505550843373ffffffffffffffffffffffffffffffffffffffff167f4d99b957a2bc29a30ebd96a7be8e68fe50a3c701db28a91436490b7d53870ca460405160405180910390a35050505050565b600160009054906101000a900473ffffffffffffffffffffffffffffffffffffffff1681565b600073ffffffffffffffffffffffffffffffffffffffff82169050919050565b6000819050919050565b600061083e610839610834846107f9565b610819565b6107f9565b9050919050565b600061085082610823565b9050919050565b600061086282610845565b9050919050565b61087281610857565b82525050565b600060208201905061088d6000830184610869565b92915050565b6000604051905090565b600080fd5b600080fd5b6000819050919050565b6108ba816108a7565b81146108c557600080fd5b50565b6000813590506108d7816108b1565b92915050565b600080604083850312156108f4576108f361089d565b5b6000610902858286016108c8565b9250506020610913858286016108c8565b9150509250929050565b600081519050919050565b600082825260208201905092915050565b6000819050602082019050919050565b610952816108a7565b82525050565b600081519050919050565b600082825260208201905092915050565b60005b83811015610992578082015181840152602081019050610977565b60008484015250505050565b6000601f19601f8301169050919050565b60006109ba82610958565b6109c48185610963565b93506109d4818560208601610974565b6109dd8161099e565b840191505092915050565b600060e083016000830151610a006000860182610949565b5060208301518482036020860152610a1882826109af565b91505060408301518482036040860152610a3282826109af565b91505060608301518482036060860152610a4c82826109af565b91505060808301518482036080860152610a6682826109af565b91505060a0830151610a7b60a0860182610949565b5060c0830151610a8e60c0860182610949565b508091505092915050565b6000610aa583836109e8565b905092915050565b6000602082019050919050565b6000610ac58261091d565b610acf8185610928565b935083602082028501610ae185610939565b8060005b85811015610b1d5784840389528151610afe8582610a99565b9450610b0983610aad565b925060208a01995050600181019050610ae5565b50829750879550505050505092915050565b60006020820190508181036000830152610b498184610aba565b905092915050565b6000610b5c826107f9565b9050919050565b610b6c81610b51565b8114610b7757600080fd5b50565b600081359050610b8981610b63565b92915050565b60008060408385031215610ba657610ba561089d565b5b6000610bb485828601610b7a565b9250506020610bc5858286016108c8565b9150509250929050565b60008115159050919050565b610be481610bcf565b82525050565b6000602082019050610bff6000830184610bdb565b92915050565b600080600060608486031215610c1e57610c1d61089d565b5b6000610c2c868287016108c8565b9350506020610c3d868287016108c8565b9250506040610c4e868287016108c8565b9150509250925092565b6000610c6382610845565b9050919050565b610c7381610c58565b82525050565b6000602082019050610c8e6000830184610c6a565b92915050565b610c9d816108a7565b82525050565b6000604082019050610cb86000830185610c94565b610cc56020830184610c94565b9392505050565b600080fd5b7f4e487b7100000000000000000000000000000000000000000000000000000000600052604160045260246000fd5b610d098261099e565b810181811067ffffffffffffffff82111715610d2857610d27610cd1565b5b80604052505050565b6000610d3b610893565b9050610d478282610d00565b919050565b600067ffffffffffffffff821115610d6757610d66610cd1565b5b602082029050602081019050919050565b600080fd5b600080fd5b600080fd5b600081519050610d96816108b1565b92915050565b600080fd5b600067ffffffffffffffff821115610dbc57610dbb610cd1565b5b610dc58261099e565b9050602081019050919050565b6000610de5610de084610da1565b610d31565b905082815260208101848484011115610e0157610e00610d9c565b5b610e0c848285610974565b509392505050565b600082601f830112610e2957610e28610ccc565b5b8151610e39848260208601610dd2565b91505092915050565b600060e08284031215610e5857610e57610d7d565b5b610e6260e0610d31565b90506000610e7284828501610d87565b600083015250602082015167ffffffffffffffff811115610e9657610e95610d82565b5b610ea284828501610e14565b602083015250604082015167ffffffffffffffff811115610ec657610ec5610d82565b5b610ed284828501610e14565b604083015250606082015167ffffffffffffffff811115610ef657610ef5610d82565b5b610f0284828501610e14565b606083015250608082015167ffffffffffffffff811115610f2657610f25610d82565b5b610f3284828501610e14565b60808301525060a0610f4684828501610d87565b60a08301525060c0610f5a84828501610d87565b60c08301525092915050565b6000610f79610f7484610d4c565b610d31565b90508083825260208201905060208402830185811115610f9c57610f9b610d78565b5b835b81811015610fe357805167ffffffffffffffff811115610fc157610fc0610ccc565b5b808601610fce8982610e42565b85526020850194505050602081019050610f9e565b5050509392505050565b600082601f83011261100257611001610ccc565b5b8151611012848260208601610f66565b91505092915050565b6000602082840312156110315761103061089d565b5b600082015167ffffffffffffffff81111561104f5761104e6108a2565b5b61105b84828501610fed565b91505092915050565b7f4e487b7100000000000000000000000000000000000000000000000000000000600052603260045260246000fd5b600080600080600080600060e0888a0312156110b2576110b161089d565b5b60006110c08a828b01610d87565b975050602088015167ffffffffffffffff8111156110e1576110e06108a2565b5b6110ed8a828b01610e14565b965050604088015167ffffffffffffffff81111561110e5761110d6108a2565b5b61111a8a828b01610e14565b955050606088015167ffffffffffffffff81111561113b5761113a6108a2565b5b6111478a828b01610e14565b945050608088015167ffffffffffffffff811115611168576111676108a2565b5b6111748a828b01610e14565b93505060a088015167ffffffffffffffff811115611195576111946108a2565b5b6111a18a828b01610e14565b92505060c088015167ffffffffffffffff8111156111c2576111c16108a2565b5b6111ce8a828b01610e14565b91505092959891949750929550565b600082825260208201905092915050565b60006111f982610958565b61120381856111dd565b9350611213818560208601610974565b61121c8161099e565b840191505092915050565b600060808201905061123c6000830187610c94565b818103602083015261124e81866111ee565b9050818103604083015261126281856111ee565b90506112716060830184610c94565b95945050505050565b600060208201905061128f6000830184610c94565b92915050565b61129e81610bcf565b81146112a957600080fd5b50565b6000815190506112bb81611295565b92915050565b6000602082840312156112d7576112d661089d565b5b60006112e5848285016112ac565b91505092915050565b7f456c656374696f6e204e6f742053746172746564206f722048617320456e646560008201527f6400000000000000000000000000000000000000000000000000000000000000602082015250565b600061134a6021836111dd565b9150611355826112ee565b604082019050919050565b600060208201905081810360008301526113798161133d565b9050919050565b7f596f75206861766520616c726561647920766f74656420666f7220746869732060008201527f706f736974696f6e000000000000000000000000000000000000000000000000602082015250565b60006113dc6028836111dd565b91506113e782611380565b604082019050919050565b6000602082019050818103600083015261140b816113cf565b9050919050565b7f496e76616c69642063616e646964617465000000000000000000000000000000600082015250565b60006114486011836111dd565b915061145382611412565b602082019050919050565b600060208201905081810360008301526114778161143b565b9050919050565b6000602082840312156114945761149361089d565b5b60006114a284828501610d87565b91505092915050565b7f43616e646964617465204e6f74205679696e6720666f7220706f736974696f6e600082015250565b60006114e16020836111dd565b91506114ec826114ab565b602082019050919050565b60006020820190508181036000830152611510816114d4565b9050919050565b7f4e487b7100000000000000000000000000000000000000000000000000000000600052601160045260246000fd5b6000611551826108a7565b91507fffffffffffffffffffffffffffffffffffffffffffffffffffffffffffffffff820361158357611582611517565b5b60018201905091905056fea264697066735822122008ffe860d83717977d43b7474576d00cad4d2549a93768e876996e645e29763064736f6c634300081c0033",
  "linkReferences": {},
  "deployedLinkReferences": {}
}